{"abi":[{"type":"constructor","inputs":[{"name":"entranceFee","type":"uint256","internalType":"uint256"},{"name":"interval","type":"uint256","internalType":"uint256"},{"name":"vrfCoordinator","type":"address","internalType":"address"},{"name":"gasLane","type":"bytes32","internalType":"bytes32"},{"name":"subscriptionId","type":"uint64","internalType":"uint64"},{"name":"callbackGasLimit","type":"uint32","internalType":"uint32"}],"stateMutability":"nonpayable"},{"type":"function","name":"acceptOwnership","inputs":[],"outputs":[],"stateMutability":"nonpayable"},{"type":"function","name":"checkUpkeep","inputs":[{"name":"","type":"bytes","internalType":"bytes"}],"outputs":[{"name":"upkeepNeeded","type":"bool","internalType":"bool"},{"name":"","type":"bytes","internalType":"bytes"}],"stateMutability":"view"},{"type":"function","name":"enterRaffle","inputs":[],"outputs":[],"stateMutability":"payable"},{"type":"function","name":"getEntranceFee","inputs":[],"outputs":[{"name":"","type":"uint256","internalType":"uint256"}],"stateMutability":"view"},{"type":"function","name":"owner","inputs":[],"outputs":[{"name":"","type":"address","internalType":"address"}],"stateMutability":"view"},{"type":"function","name":"performUpkeep","inputs":[{"name":"","type":"bytes","internalType":"bytes"}],"outputs":[],"stateMutability":"nonpayable"},{"type":"function","name":"rawFulfillRandomWords","inputs":[{"name":"requestId","type":"uint256","internalType":"uint256"},{"name":"randomWords","type":"uint256[]","internalType":"uint256[]"}],"outputs":[],"stateMutability":"nonpayable"},{"type":"function","name":"s_vrfCoordinator","inputs":[],"outputs":[{"name":"","type":"address","internalType":"contract IVRFCoordinatorV2Plus"}],"stateMutability":"view"},{"type":"function","name":"setCoordinator","inputs":[{"name":"_vrfCoordinator","type":"address","internalType":"address"}],"outputs":[],"stateMutability":"nonpayable"},{"type":"function","name":"transferOwnership","inputs":[{"name":"to","type":"address","internalType":"address"}],"outputs":[],"stateMutability":"nonpayable"},{"type":"event","name":"EnteredRaffle","inputs":[{"name":"player","type":"address","indexed":true,"internalType":"address"}],"anonymous":false},{"type":"event","name":"OwnershipTransferRequested","inputs":[{"name":"from","type":"address","indexed":true,"internalType":"address"},{"name":"to","type":"address","indexed":true,"internalType":"address"}],"anonymous":false},{"type":"event","name":"OwnershipTransferred","inputs":[{"name":"from","type":"address","indexed":true,"internalType":"address"},{"name":"to","type":"address","indexed":true,"internalType":"address"}],"anonymous":false},{"type":"event","name":"PickedWinner","inputs":[{"name":"winner","type":"address","indexed":false,"internalType":"address"}],"anonymous":false},{"type":"error","name":"OnlyCoordinatorCanFulfill","inputs":[{"name":"have","type":"address","internalType":"address"},{"name":"want","type":"address","internalType":"address"}]},{"type":"error","name":"OnlyOwnerOrCoordinator","inputs":[{"name":"have","type":"address","internalType":"address"},{"name":"owner","type":"address","internalType":"address"},{"name":"coordinator","type":"address","internalType":"address"}]},{"type":"error","name":"Raffle__NotEnoughEthSent","inputs":[]},{"type":"error","name":"Raffle__RaffleNotOpen","inputs":[]},{"type":"error","name":"Raffle__TransferFailed","inputs":[]},{"type":"error","name":"Raffle__UpkeepNotNeeded","inputs":[{"name":"balance","type":"uint256","internalType":"uint256"},{"name":"length","type":"uint256","internalType":"uint256"},{"name":"raffleState","type":"uint256","internalType":"uint256"}]},{"type":"error","name":"ZeroAddress","inputs":[]}],"bytecode":{"object":"0x610140604052348015610010575f5ffd5b5060405161101c38038061101c83398101604081905261002f916101bd565b8333805f816100855760405162461bcd60e51b815260206004820152601860248201527f43616e6e6f7420736574206f776e657220746f207a65726f000000000000000060448201526064015b60405180910390fd5b5f80546001600160a01b0319166001600160a01b03848116919091179091558116156100b4576100b481610115565b5050600280546001600160a01b0319166001600160a01b0393909316929092179091555060809590955260a0939093524260045560e052506001600160401b03166101005263ffffffff16610120526005805460ff60a01b19169055610241565b336001600160a01b0382160361016d5760405162461bcd60e51b815260206004820152601760248201527f43616e6e6f74207472616e7366657220746f2073656c66000000000000000000604482015260640161007c565b600180546001600160a01b0319166001600160a01b038381169182179092555f8054604051929316917fed8889f560326eb138920d842192f0eb3dd22b4f139c87a2c57538e05bae12789190a350565b5f5f5f5f5f5f60c087890312156101d2575f5ffd5b86516020880151604089015191975095506001600160a01b03811681146101f7575f5ffd5b6060880151608089015191955093506001600160401b038116811461021a575f5ffd5b60a088015190925063ffffffff81168114610233575f5ffd5b809150509295509295509295565b60805160a05160c05160e0516101005161012051610d9161028b5f395f61040301525f6103c801525f6103a201525f50505f6104fe01525f818160a4015261023d0152610d915ff3fe60806040526004361061008f575f3560e01c806379ba50971161005757806379ba5097146101475780638da5cb5b1461015b5780638ea981171461018b5780639eccacf6146101aa578063f2fde38b146101c9575f5ffd5b806309bc33a7146100935780631fe543e3146100d25780632cfcc539146100f35780634585e33b146100fb5780636e04ff0d1461011a575b5f5ffd5b34801561009e575f5ffd5b506040517f000000000000000000000000000000000000000000000000000000000000000081526020015b60405180910390f35b3480156100dd575f5ffd5b506100f16100ec366004610a45565b6101e8565b005b6100f161023b565b348015610106575f5ffd5b506100f1610115366004610afd565b610326565b348015610125575f5ffd5b50610139610134366004610b6b565b6104d2565b6040516100c9929190610c2d565b348015610152575f5ffd5b506100f161057f565b348015610166575f5ffd5b505f546001600160a01b03165b6040516001600160a01b0390911681526020016100c9565b348015610196575f5ffd5b506100f16101a5366004610c4f565b610628565b3480156101b5575f5ffd5b50600254610173906001600160a01b031681565b3480156101d4575f5ffd5b506100f16101e3366004610c4f565b6106bf565b6002546001600160a01b0316331461022d5760025460405163073e64fd60e21b81523360048201526001600160a01b0390911660248201526044015b60405180910390fd5b61023782826106d3565b5050565b7f000000000000000000000000000000000000000000000000000000000000000034101561027c5760405163246b904d60e01b815260040160405180910390fd5b5f600554600160a01b900460ff16600181111561029b5761029b610c7c565b146102b95760405163349289c560e21b815260040160405180910390fd5b600380546001810182555f9182527fc2575a0e9e593c00f959f8c92f12db2869c3395a3b0502d05e2516446f71f85b0180546001600160a01b0319163390811790915560405190917f819fbd717c9d0b421352c5116a644ca68ba176960c33f406f08d98a27370ca2791a2565b5f61033e60405180602001604052805f8152506104d2565b5090508061039457600354600554479190600160a01b900460ff16600181111561036a5761036a610c7c565b604051632c2193d560e11b8152600481019390935260248301919091526044820152606401610224565b5f6040518060c001604052807f000000000000000000000000000000000000000000000000000000000000000081526020017f000000000000000000000000000000000000000000000000000000000000000067ffffffffffffffff168152602001600361ffff1681526020017f000000000000000000000000000000000000000000000000000000000000000063ffffffff168152602001600163ffffffff16815260200161045360405180602001604052805f151581525061081c565b9052600254604051634d8e1c2f60e11b81529192505f916001600160a01b0390911690639b1c385e9061048a908590600401610c90565b6020604051808303815f875af11580156104a6573d5f5f3e3d5ffd5b505050506040513d601f19601f820116820180604052508101906104ca9190610cec565b505050505050565b5f60605f600560149054906101000a900460ff1660018111156104f7576104f7610c7c565b5f1490505f7f00000000000000000000000000000000000000000000000000000000000000006004544261052b9190610d03565b600354911180159250901515904715159083906105455750835b801561054e5750805b80156105575750815b60408051808201909152600381526203078360ec1b6020820152909890975095505050505050565b6001546001600160a01b031633146105d25760405162461bcd60e51b815260206004820152601660248201527526bab9ba10313290383937b837b9b2b21037bbb732b960511b6044820152606401610224565b5f8054336001600160a01b0319808316821784556001805490911690556040516001600160a01b0390921692909183917f8be0079c531659141344cd1fd0a4f28419497f9722a3daafe3b4186f6b6457e091a350565b5f546001600160a01b0316331480159061064d57506002546001600160a01b03163314155b1561069d57336106645f546001600160a01b031690565b60025460405163061db9c160e01b81526001600160a01b0393841660048201529183166024830152919091166044820152606401610224565b600280546001600160a01b0319166001600160a01b0392909216919091179055565b6106c761088d565b6106d0816108e1565b50565b5f600380549050825f815181106106ec576106ec610d28565b60200260200101516106fe9190610d3c565b90505f6003828154811061071457610714610d28565b5f91825260208083209190910154600580546001600160a81b0319166001600160a01b039092169182179055604080519384529183019182905291519192506107609160039190610989565b50426004556005546040516001600160a01b0390911681527fb112587e57bfa970257f3d54fc52859c6300f6bd7a982462c320fed45c2530ed9060200160405180910390a15f816001600160a01b0316476040515f6040518083038185875af1925050503d805f81146107ee576040519150601f19603f3d011682016040523d82523d5f602084013e6107f3565b606091505b50509050806108155760405163a1d04b3960e01b815260040160405180910390fd5b5050505050565b60607f92fd13387c7fe7befbc38d303d6468778fb9731bc4583f17d92989c6fcfdeaaa8260405160240161085591511515815260200190565b60408051601f198184030181529190526020810180516001600160e01b03166001600160e01b03199093169290921790915292915050565b5f546001600160a01b031633146108df5760405162461bcd60e51b815260206004820152601660248201527527b7363c9031b0b63630b1363290313c9037bbb732b960511b6044820152606401610224565b565b336001600160a01b038216036109395760405162461bcd60e51b815260206004820152601760248201527f43616e6e6f74207472616e7366657220746f2073656c660000000000000000006044820152606401610224565b600180546001600160a01b0319166001600160a01b038381169182179092555f8054604051929316917fed8889f560326eb138920d842192f0eb3dd22b4f139c87a2c57538e05bae12789190a350565b828054828255905f5260205f209081019282156109dc579160200282015b828111156109dc57825182546001600160a01b0319166001600160a01b039091161782556020909201916001909101906109a7565b506109e89291506109ec565b5090565b5b808211156109e8575f81556001016109ed565b634e487b7160e01b5f52604160045260245ffd5b604051601f8201601f1916810167ffffffffffffffff81118282101715610a3d57610a3d610a00565b604052919050565b5f5f60408385031215610a56575f5ffd5b82359150602083013567ffffffffffffffff811115610a73575f5ffd5b8301601f81018513610a83575f5ffd5b803567ffffffffffffffff811115610a9d57610a9d610a00565b8060051b610aad60208201610a14565b91825260208184018101929081019088841115610ac8575f5ffd5b6020850194505b83851015610aee57843580835260209586019590935090910190610acf565b80955050505050509250929050565b5f5f60208385031215610b0e575f5ffd5b823567ffffffffffffffff811115610b24575f5ffd5b8301601f81018513610b34575f5ffd5b803567ffffffffffffffff811115610b4a575f5ffd5b856020828401011115610b5b575f5ffd5b6020919091019590945092505050565b5f60208284031215610b7b575f5ffd5b813567ffffffffffffffff811115610b91575f5ffd5b8201601f81018413610ba1575f5ffd5b803567ffffffffffffffff811115610bbb57610bbb610a00565b610bce601f8201601f1916602001610a14565b818152856020838501011115610be2575f5ffd5b816020840160208301375f91810160200191909152949350505050565b5f81518084528060208401602086015e5f602082860101526020601f19601f83011685010191505092915050565b8215158152604060208201525f610c476040830184610bff565b949350505050565b5f60208284031215610c5f575f5ffd5b81356001600160a01b0381168114610c75575f5ffd5b9392505050565b634e487b7160e01b5f52602160045260245ffd5b60208152815160208201526020820151604082015261ffff604083015116606082015263ffffffff606083015116608082015263ffffffff60808301511660a08201525f60a083015160c080840152610c4760e0840182610bff565b5f60208284031215610cfc575f5ffd5b5051919050565b81810381811115610d2257634e487b7160e01b5f52601160045260245ffd5b92915050565b634e487b7160e01b5f52603260045260245ffd5b5f82610d5657634e487b7160e01b5f52601260045260245ffd5b50069056fea264697066735822122094697afbbcc595ccb271c4829987a292bf783d9202068b69794c8f6cbd1cbe3864736f6c634300081c0033","linkReferences":{}},"methodIdentifiers":{"acceptOwnership()":"79ba5097","checkUpkeep(bytes)":"6e04ff0d","enterRaffle()":"2cfcc539","getEntranceFee()":"09bc33a7","owner()":"8da5cb5b","performUpkeep(bytes)":"4585e33b","rawFulfillRandomWords(uint256,uint256[])":"1fe543e3","s_vrfCoordinator()":"9eccacf6","setCoordinator(address)":"8ea98117","transferOwnership(address)":"f2fde38b"},"id":8}