{"abi":[{"type":"constructor","inputs":[{"name":"entranceFee","type":"uint256","internalType":"uint256"}],"stateMutability":"nonpayable"},{"type":"function","name":"enterRaffle","inputs":[],"outputs":[],"stateMutability":"payable"},{"type":"function","name":"getEntranceFee","inputs":[],"outputs":[{"name":"","type":"uint256","internalType":"uint256"}],"stateMutability":"view"},{"type":"function","name":"pickWinner","inputs":[],"outputs":[],"stateMutability":"nonpayable"}],"bytecode":{"object":"0x60a0604052348015600e575f5ffd5b50604051610110380380610110833981016040819052602b916032565b6080526048565b5f602082840312156041575f5ffd5b5051919050565b60805160b361005d5f395f6040015260b35ff3fe608060405260043610602f575f3560e01c806309bc33a71460335780632cfcc5391460715780635d495aea146073575b5f5ffd5b348015603d575f5ffd5b507f000000000000000000000000000000000000000000000000000000000000000060405190815260200160405180910390f35b005b3480156071575f5ffdfea2646970667358221220c9a1d4606cd4b1b09a1f37732b32a5666f4a9272cddbe794c8a1df6181e125e664736f6c634300081c0033","linkReferences":{}},"methodIdentifiers":{"enterRaffle()":"2cfcc539","getEntranceFee()":"09bc33a7","pickWinner()":"5d495aea"},"id":0}