{"abi":[{"type":"constructor","inputs":[{"name":"entranceFee","type":"uint256","internalType":"uint256"},{"name":"interval","type":"uint256","internalType":"uint256"},{"name":"vrfCoordinator","type":"address","internalType":"address"},{"name":"gasLane","type":"bytes32","internalType":"bytes32"},{"name":"subscriptionId","type":"uint256","internalType":"uint256"},{"name":"callbackGasLimit","type":"uint32","internalType":"uint32"}],"stateMutability":"nonpayable"},{"type":"function","name":"acceptOwnership","inputs":[],"outputs":[],"stateMutability":"nonpayable"},{"type":"function","name":"checkUpkeep","inputs":[{"name":"","type":"bytes","internalType":"bytes"}],"outputs":[{"name":"upkeepNeeded","type":"bool","internalType":"bool"},{"name":"","type":"bytes","internalType":"bytes"}],"stateMutability":"view"},{"type":"function","name":"enterRaffle","inputs":[],"outputs":[],"stateMutability":"payable"},{"type":"function","name":"getEntranceFee","inputs":[],"outputs":[{"name":"","type":"uint256","internalType":"uint256"}],"stateMutability":"view"},{"type":"function","name":"getRaffleState","inputs":[],"outputs":[{"name":"","type":"uint8","internalType":"enum Raffle.RaffleState"}],"stateMutability":"view"},{"type":"function","name":"owner","inputs":[],"outputs":[{"name":"","type":"address","internalType":"address"}],"stateMutability":"view"},{"type":"function","name":"performUpkeep","inputs":[{"name":"","type":"bytes","internalType":"bytes"}],"outputs":[],"stateMutability":"nonpayable"},{"type":"function","name":"rawFulfillRandomWords","inputs":[{"name":"requestId","type":"uint256","internalType":"uint256"},{"name":"randomWords","type":"uint256[]","internalType":"uint256[]"}],"outputs":[],"stateMutability":"nonpayable"},{"type":"function","name":"s_vrfCoordinator","inputs":[],"outputs":[{"name":"","type":"address","internalType":"contract IVRFCoordinatorV2Plus"}],"stateMutability":"view"},{"type":"function","name":"setCoordinator","inputs":[{"name":"_vrfCoordinator","type":"address","internalType":"address"}],"outputs":[],"stateMutability":"nonpayable"},{"type":"function","name":"transferOwnership","inputs":[{"name":"to","type":"address","internalType":"address"}],"outputs":[],"stateMutability":"nonpayable"},{"type":"event","name":"EnteredRaffle","inputs":[{"name":"player","type":"address","indexed":true,"internalType":"address"}],"anonymous":false},{"type":"event","name":"OwnershipTransferRequested","inputs":[{"name":"from","type":"address","indexed":true,"internalType":"address"},{"name":"to","type":"address","indexed":true,"internalType":"address"}],"anonymous":false},{"type":"event","name":"OwnershipTransferred","inputs":[{"name":"from","type":"address","indexed":true,"internalType":"address"},{"name":"to","type":"address","indexed":true,"internalType":"address"}],"anonymous":false},{"type":"event","name":"PickedWinner","inputs":[{"name":"winner","type":"address","indexed":false,"internalType":"address"}],"anonymous":false},{"type":"error","name":"OnlyCoordinatorCanFulfill","inputs":[{"name":"have","type":"address","internalType":"address"},{"name":"want","type":"address","internalType":"address"}]},{"type":"error","name":"OnlyOwnerOrCoordinator","inputs":[{"name":"have","type":"address","internalType":"address"},{"name":"owner","type":"address","internalType":"address"},{"name":"coordinator","type":"address","internalType":"address"}]},{"type":"error","name":"Raffle__NotEnoughEthSent","inputs":[]},{"type":"error","name":"Raffle__RaffleNotOpen","inputs":[]},{"type":"error","name":"Raffle__TransferFailed","inputs":[]},{"type":"error","name":"Raffle__UpkeepNotNeeded","inputs":[{"name":"balance","type":"uint256","internalType":"uint256"},{"name":"length","type":"uint256","internalType":"uint256"},{"name":"raffleState","type":"uint256","internalType":"uint256"}]},{"type":"error","name":"ZeroAddress","inputs":[]}],"bytecode":{"object":"0x6101206040523480156200001257600080fd5b506040516200223238038062002232833981810160405281019062000038919062000440565b83338060008073ffffffffffffffffffffffffffffffffffffffff168273ffffffffffffffffffffffffffffffffffffffff1603620000ae576040517f08c379a0000000000000000000000000000000000000000000000000000000008152600401620000a5906200053d565b60405180910390fd5b816000806101000a81548173ffffffffffffffffffffffffffffffffffffffff021916908373ffffffffffffffffffffffffffffffffffffffff160217905550600073ffffffffffffffffffffffffffffffffffffffff168173ffffffffffffffffffffffffffffffffffffffff161462000135576200013481620001f060201b60201c565b5b50505080600260006101000a81548173ffffffffffffffffffffffffffffffffffffffff021916908373ffffffffffffffffffffffffffffffffffffffff1602179055505085608081815250508460a08181525050426004819055508260c081815250508160e081815250508063ffffffff166101008163ffffffff16815250506000600560146101000a81548160ff02191690836001811115620001df57620001de6200055f565b5b021790555050505050505062000600565b3373ffffffffffffffffffffffffffffffffffffffff168173ffffffffffffffffffffffffffffffffffffffff160362000261576040517f08c379a00000000000000000000000000000000000000000000000000000000081526004016200025890620005de565b60405180910390fd5b80600160006101000a81548173ffffffffffffffffffffffffffffffffffffffff021916908373ffffffffffffffffffffffffffffffffffffffff1602179055508073ffffffffffffffffffffffffffffffffffffffff1660008054906101000a900473ffffffffffffffffffffffffffffffffffffffff1673ffffffffffffffffffffffffffffffffffffffff167fed8889f560326eb138920d842192f0eb3dd22b4f139c87a2c57538e05bae127860405160405180910390a350565b600080fd5b6000819050919050565b620003398162000324565b81146200034557600080fd5b50565b60008151905062000359816200032e565b92915050565b600073ffffffffffffffffffffffffffffffffffffffff82169050919050565b60006200038c826200035f565b9050919050565b6200039e816200037f565b8114620003aa57600080fd5b50565b600081519050620003be8162000393565b92915050565b6000819050919050565b620003d981620003c4565b8114620003e557600080fd5b50565b600081519050620003f981620003ce565b92915050565b600063ffffffff82169050919050565b6200041a81620003ff565b81146200042657600080fd5b50565b6000815190506200043a816200040f565b92915050565b60008060008060008060c0878903121562000460576200045f6200031f565b5b60006200047089828a0162000348565b96505060206200048389828a0162000348565b95505060406200049689828a01620003ad565b9450506060620004a989828a01620003e8565b9350506080620004bc89828a0162000348565b92505060a0620004cf89828a0162000429565b9150509295509295509295565b600082825260208201905092915050565b7f43616e6e6f7420736574206f776e657220746f207a65726f0000000000000000600082015250565b600062000525601883620004dc565b91506200053282620004ed565b602082019050919050565b60006020820190508181036000830152620005588162000516565b9050919050565b7f4e487b7100000000000000000000000000000000000000000000000000000000600052602160045260246000fd5b7f43616e6e6f74207472616e7366657220746f2073656c66000000000000000000600082015250565b6000620005c6601783620004dc565b9150620005d3826200058e565b602082019050919050565b60006020820190508181036000830152620005f981620005b7565b9050919050565b60805160a05160c05160e05161010051611be66200064c60003960006105b1015260006105800152600061055a015260006106ef01526000818161025401526103550152611be66000f3fe60806040526004361061009c5760003560e01c80636e04ff0d116100645780636e04ff0d1461015357806379ba5097146101915780638da5cb5b146101a85780638ea98117146101d35780639eccacf6146101fc578063f2fde38b146102275761009c565b806309bc33a7146100a1578063115cbaf5146100cc5780631fe543e3146100f75780632cfcc539146101205780634585e33b1461012a575b600080fd5b3480156100ad57600080fd5b506100b6610250565b6040516100c3919061102e565b60405180910390f35b3480156100d857600080fd5b506100e1610278565b6040516100ee91906110c0565b60405180910390f35b34801561010357600080fd5b5061011e60048036038101906101199190611274565b61028f565b005b610128610353565b005b34801561013657600080fd5b50610151600480360381019061014c919061132b565b6104c2565b005b34801561015f57600080fd5b5061017a6004803603810190610175919061142d565b6106ac565b604051610188929190611510565b60405180910390f35b34801561019d57600080fd5b506101a6610795565b005b3480156101b457600080fd5b506101bd61092a565b6040516101ca9190611581565b60405180910390f35b3480156101df57600080fd5b506101fa60048036038101906101f591906115c8565b610953565b005b34801561020857600080fd5b50610211610a97565b60405161021e9190611654565b60405180910390f35b34801561023357600080fd5b5061024e600480360381019061024991906115c8565b610abd565b005b60007f0000000000000000000000000000000000000000000000000000000000000000905090565b6000600560149054906101000a900460ff16905090565b600260009054906101000a900473ffffffffffffffffffffffffffffffffffffffff1673ffffffffffffffffffffffffffffffffffffffff163373ffffffffffffffffffffffffffffffffffffffff16146103455733600260009054906101000a900473ffffffffffffffffffffffffffffffffffffffff166040517f1cf993f400000000000000000000000000000000000000000000000000000000815260040161033c92919061166f565b60405180910390fd5b61034f8282610ad1565b5050565b7f00000000000000000000000000000000000000000000000000000000000000003410156103ad576040517f246b904d00000000000000000000000000000000000000000000000000000000815260040160405180910390fd5b600060018111156103c1576103c0611049565b5b600560149054906101000a900460ff1660018111156103e3576103e2611049565b5b1461041a576040517fd24a271400000000000000000000000000000000000000000000000000000000815260040160405180910390fd5b6003339080600181540180825580915050600190039060005260206000200160009091909190916101000a81548173ffffffffffffffffffffffffffffffffffffffff021916908373ffffffffffffffffffffffffffffffffffffffff1602179055503373ffffffffffffffffffffffffffffffffffffffff167f819fbd717c9d0b421352c5116a644ca68ba176960c33f406f08d98a27370ca2760405160405180910390a2565b60006104dc604051806020016040528060008152506106ac565b5090508061054b5747600380549050600560149054906101000a900460ff16600181111561050d5761050c611049565b5b6040517f584327aa00000000000000000000000000000000000000000000000000000000815260040161054293929190611698565b60405180910390fd5b60006040518060c001604052807f000000000000000000000000000000000000000000000000000000000000000081526020017f00000000000000000000000000000000000000000000000000000000000000008152602001600361ffff1681526020017f000000000000000000000000000000000000000000000000000000000000000063ffffffff168152602001600163ffffffff168152602001610602604051806020016040528060001515815250610d1a565b8152509050600260009054906101000a900473ffffffffffffffffffffffffffffffffffffffff1673ffffffffffffffffffffffffffffffffffffffff16639b1c385e826040518263ffffffff1660e01b81526004016106629190611806565b6020604051808303816000875af1158015610681573d6000803e3d6000fd5b505050506040513d601f19601f820116820180604052508101906106a5919061183d565b5050505050565b600060606000600560149054906101000a900460ff1660018111156106d4576106d3611049565b5b600060018111156106e8576106e7611049565b5b14905060007f00000000000000000000000000000000000000000000000000000000000000006004544261071c9190611899565b101590506000806003805490501190506000804711905082801561073d5750835b80156107465750805b801561074f5750815b9550856040518060400160405280600381526020017f30783000000000000000000000000000000000000000000000000000000000008152509550955050505050915091565b600160009054906101000a900473ffffffffffffffffffffffffffffffffffffffff1673ffffffffffffffffffffffffffffffffffffffff163373ffffffffffffffffffffffffffffffffffffffff1614610825576040517f08c379a000000000000000000000000000000000000000000000000000000000815260040161081c9061192a565b60405180910390fd5b60008060009054906101000a900473ffffffffffffffffffffffffffffffffffffffff169050336000806101000a81548173ffffffffffffffffffffffffffffffffffffffff021916908373ffffffffffffffffffffffffffffffffffffffff1602179055506000600160006101000a81548173ffffffffffffffffffffffffffffffffffffffff021916908373ffffffffffffffffffffffffffffffffffffffff1602179055503373ffffffffffffffffffffffffffffffffffffffff168173ffffffffffffffffffffffffffffffffffffffff167f8be0079c531659141344cd1fd0a4f28419497f9722a3daafe3b4186f6b6457e060405160405180910390a350565b60008060009054906101000a900473ffffffffffffffffffffffffffffffffffffffff16905090565b61095b61092a565b73ffffffffffffffffffffffffffffffffffffffff163373ffffffffffffffffffffffffffffffffffffffff16141580156109e45750600260009054906101000a900473ffffffffffffffffffffffffffffffffffffffff1673ffffffffffffffffffffffffffffffffffffffff163373ffffffffffffffffffffffffffffffffffffffff1614155b15610a5357336109f261092a565b600260009054906101000a900473ffffffffffffffffffffffffffffffffffffffff166040517f061db9c1000000000000000000000000000000000000000000000000000000008152600401610a4a9392919061194a565b60405180910390fd5b80600260006101000a81548173ffffffffffffffffffffffffffffffffffffffff021916908373ffffffffffffffffffffffffffffffffffffffff16021790555050565b600260009054906101000a900473ffffffffffffffffffffffffffffffffffffffff1681565b610ac5610db2565b610ace81610e42565b50565b600060038054905082600081518110610aed57610aec611981565b5b6020026020010151610aff91906119df565b9050600060038281548110610b1757610b16611981565b5b9060005260206000200160009054906101000a900473ffffffffffffffffffffffffffffffffffffffff16905080600560006101000a81548173ffffffffffffffffffffffffffffffffffffffff021916908373ffffffffffffffffffffffffffffffffffffffff1602179055506000600560146101000a81548160ff02191690836001811115610bab57610baa611049565b5b0217905550600067ffffffffffffffff811115610bcb57610bca611131565b5b604051908082528060200260200182016040528015610bf95781602001602082028036833780820191505090505b5060039080519060200190610c0f929190610f6e565b50426004819055507fb112587e57bfa970257f3d54fc52859c6300f6bd7a982462c320fed45c2530ed600560009054906101000a900473ffffffffffffffffffffffffffffffffffffffff16604051610c689190611a31565b60405180910390a160008173ffffffffffffffffffffffffffffffffffffffff1647604051610c9690611a7d565b60006040518083038185875af1925050503d8060008114610cd3576040519150601f19603f3d011682016040523d82523d6000602084013e610cd8565b606091505b5050905080610d13576040517fa1d04b3900000000000000000000000000000000000000000000000000000000815260040160405180910390fd5b5050505050565b60607f92fd13387c7fe7befbc38d303d6468778fb9731bc4583f17d92989c6fcfdeaaa82604051602401610d4e9190611abd565b604051602081830303815290604052907bffffffffffffffffffffffffffffffffffffffffffffffffffffffff19166020820180517bffffffffffffffffffffffffffffffffffffffffffffffffffffffff83818316178352505050509050919050565b60008054906101000a900473ffffffffffffffffffffffffffffffffffffffff1673ffffffffffffffffffffffffffffffffffffffff163373ffffffffffffffffffffffffffffffffffffffff1614610e40576040517f08c379a0000000000000000000000000000000000000000000000000000000008152600401610e3790611b24565b60405180910390fd5b565b3373ffffffffffffffffffffffffffffffffffffffff168173ffffffffffffffffffffffffffffffffffffffff1603610eb0576040517f08c379a0000000000000000000000000000000000000000000000000000000008152600401610ea790611b90565b60405180910390fd5b80600160006101000a81548173ffffffffffffffffffffffffffffffffffffffff021916908373ffffffffffffffffffffffffffffffffffffffff1602179055508073ffffffffffffffffffffffffffffffffffffffff1660008054906101000a900473ffffffffffffffffffffffffffffffffffffffff1673ffffffffffffffffffffffffffffffffffffffff167fed8889f560326eb138920d842192f0eb3dd22b4f139c87a2c57538e05bae127860405160405180910390a350565b828054828255906000526020600020908101928215610fe7579160200282015b82811115610fe65782518260006101000a81548173ffffffffffffffffffffffffffffffffffffffff021916908373ffffffffffffffffffffffffffffffffffffffff16021790555091602001919060010190610f8e565b5b509050610ff49190610ff8565b5090565b5b80821115611011576000816000905550600101610ff9565b5090565b6000819050919050565b61102881611015565b82525050565b6000602082019050611043600083018461101f565b92915050565b7f4e487b7100000000000000000000000000000000000000000000000000000000600052602160045260246000fd5b6002811061108957611088611049565b5b50565b600081905061109a82611078565b919050565b60006110aa8261108c565b9050919050565b6110ba8161109f565b82525050565b60006020820190506110d560008301846110b1565b92915050565b6000604051905090565b600080fd5b600080fd5b6110f881611015565b811461110357600080fd5b50565b600081359050611115816110ef565b92915050565b600080fd5b6000601f19601f8301169050919050565b7f4e487b7100000000000000000000000000000000000000000000000000000000600052604160045260246000fd5b61116982611120565b810181811067ffffffffffffffff8211171561118857611187611131565b5b80604052505050565b600061119b6110db565b90506111a78282611160565b919050565b600067ffffffffffffffff8211156111c7576111c6611131565b5b602082029050602081019050919050565b600080fd5b60006111f06111eb846111ac565b611191565b90508083825260208201905060208402830185811115611213576112126111d8565b5b835b8181101561123c57806112288882611106565b845260208401935050602081019050611215565b5050509392505050565b600082601f83011261125b5761125a61111b565b5b813561126b8482602086016111dd565b91505092915050565b6000806040838503121561128b5761128a6110e5565b5b600061129985828601611106565b925050602083013567ffffffffffffffff8111156112ba576112b96110ea565b5b6112c685828601611246565b9150509250929050565b600080fd5b60008083601f8401126112eb576112ea61111b565b5b8235905067ffffffffffffffff811115611308576113076112d0565b5b602083019150836001820283011115611324576113236111d8565b5b9250929050565b60008060208385031215611342576113416110e5565b5b600083013567ffffffffffffffff8111156113605761135f6110ea565b5b61136c858286016112d5565b92509250509250929050565b600080fd5b600067ffffffffffffffff82111561139857611397611131565b5b6113a182611120565b9050602081019050919050565b82818337600083830152505050565b60006113d06113cb8461137d565b611191565b9050828152602081018484840111156113ec576113eb611378565b5b6113f78482856113ae565b509392505050565b600082601f8301126114145761141361111b565b5b81356114248482602086016113bd565b91505092915050565b600060208284031215611443576114426110e5565b5b600082013567ffffffffffffffff811115611461576114606110ea565b5b61146d848285016113ff565b91505092915050565b60008115159050919050565b61148b81611476565b82525050565b600081519050919050565b600082825260208201905092915050565b60005b838110156114cb5780820151818401526020810190506114b0565b60008484015250505050565b60006114e282611491565b6114ec818561149c565b93506114fc8185602086016114ad565b61150581611120565b840191505092915050565b60006040820190506115256000830185611482565b818103602083015261153781846114d7565b90509392505050565b600073ffffffffffffffffffffffffffffffffffffffff82169050919050565b600061156b82611540565b9050919050565b61157b81611560565b82525050565b60006020820190506115966000830184611572565b92915050565b6115a581611560565b81146115b057600080fd5b50565b6000813590506115c28161159c565b92915050565b6000602082840312156115de576115dd6110e5565b5b60006115ec848285016115b3565b91505092915050565b6000819050919050565b600061161a61161561161084611540565b6115f5565b611540565b9050919050565b600061162c826115ff565b9050919050565b600061163e82611621565b9050919050565b61164e81611633565b82525050565b60006020820190506116696000830184611645565b92915050565b60006040820190506116846000830185611572565b6116916020830184611572565b9392505050565b60006060820190506116ad600083018661101f565b6116ba602083018561101f565b6116c7604083018461101f565b949350505050565b6000819050919050565b6116e2816116cf565b82525050565b6116f181611015565b82525050565b600061ffff82169050919050565b61170e816116f7565b82525050565b600063ffffffff82169050919050565b61172d81611714565b82525050565b600082825260208201905092915050565b600061174f82611491565b6117598185611733565b93506117698185602086016114ad565b61177281611120565b840191505092915050565b600060c08301600083015161179560008601826116d9565b5060208301516117a860208601826116e8565b5060408301516117bb6040860182611705565b5060608301516117ce6060860182611724565b5060808301516117e16080860182611724565b5060a083015184820360a08601526117f98282611744565b9150508091505092915050565b60006020820190508181036000830152611820818461177d565b905092915050565b600081519050611837816110ef565b92915050565b600060208284031215611853576118526110e5565b5b600061186184828501611828565b91505092915050565b7f4e487b7100000000000000000000000000000000000000000000000000000000600052601160045260246000fd5b60006118a482611015565b91506118af83611015565b92508282039050818111156118c7576118c661186a565b5b92915050565b600082825260208201905092915050565b7f4d7573742062652070726f706f736564206f776e657200000000000000000000600082015250565b60006119146016836118cd565b915061191f826118de565b602082019050919050565b6000602082019050818103600083015261194381611907565b9050919050565b600060608201905061195f6000830186611572565b61196c6020830185611572565b6119796040830184611572565b949350505050565b7f4e487b7100000000000000000000000000000000000000000000000000000000600052603260045260246000fd5b7f4e487b7100000000000000000000000000000000000000000000000000000000600052601260045260246000fd5b60006119ea82611015565b91506119f583611015565b925082611a0557611a046119b0565b5b828206905092915050565b6000611a1b82611621565b9050919050565b611a2b81611a10565b82525050565b6000602082019050611a466000830184611a22565b92915050565b600081905092915050565b50565b6000611a67600083611a4c565b9150611a7282611a57565b600082019050919050565b6000611a8882611a5a565b9150819050919050565b611a9b81611476565b82525050565b602082016000820151611ab76000850182611a92565b50505050565b6000602082019050611ad26000830184611aa1565b92915050565b7f4f6e6c792063616c6c61626c65206279206f776e657200000000000000000000600082015250565b6000611b0e6016836118cd565b9150611b1982611ad8565b602082019050919050565b60006020820190508181036000830152611b3d81611b01565b9050919050565b7f43616e6e6f74207472616e7366657220746f2073656c66000000000000000000600082015250565b6000611b7a6017836118cd565b9150611b8582611b44565b602082019050919050565b60006020820190508181036000830152611ba981611b6d565b905091905056fea26469706673582212200c8ec0b19d1e59757855edecd4a798c43754d45da947dac3a1793ddde4dae50f64736f6c63430008130033","linkReferences":{}},"methodIdentifiers":{"acceptOwnership()":"79ba5097","checkUpkeep(bytes)":"6e04ff0d","enterRaffle()":"2cfcc539","getEntranceFee()":"09bc33a7","getRaffleState()":"115cbaf5","owner()":"8da5cb5b","performUpkeep(bytes)":"4585e33b","rawFulfillRandomWords(uint256,uint256[])":"1fe543e3","s_vrfCoordinator()":"9eccacf6","setCoordinator(address)":"8ea98117","transferOwnership(address)":"f2fde38b"},"id":45}