{"abi":[{"type":"constructor","inputs":[{"name":"entranceFee","type":"uint256","internalType":"uint256"},{"name":"interval","type":"uint256","internalType":"uint256"},{"name":"vrfCoordinator","type":"address","internalType":"address"},{"name":"gasLane","type":"bytes32","internalType":"bytes32"},{"name":"subscriptionId","type":"uint64","internalType":"uint64"},{"name":"callbackGasLimit","type":"uint32","internalType":"uint32"}],"stateMutability":"nonpayable"},{"type":"function","name":"acceptOwnership","inputs":[],"outputs":[],"stateMutability":"nonpayable"},{"type":"function","name":"enterRaffle","inputs":[],"outputs":[],"stateMutability":"payable"},{"type":"function","name":"getEntranceFee","inputs":[],"outputs":[{"name":"","type":"uint256","internalType":"uint256"}],"stateMutability":"view"},{"type":"function","name":"owner","inputs":[],"outputs":[{"name":"","type":"address","internalType":"address"}],"stateMutability":"view"},{"type":"function","name":"pickWinner","inputs":[],"outputs":[],"stateMutability":"nonpayable"},{"type":"function","name":"rawFulfillRandomWords","inputs":[{"name":"requestId","type":"uint256","internalType":"uint256"},{"name":"randomWords","type":"uint256[]","internalType":"uint256[]"}],"outputs":[],"stateMutability":"nonpayable"},{"type":"function","name":"s_vrfCoordinator","inputs":[],"outputs":[{"name":"","type":"address","internalType":"contract IVRFCoordinatorV2Plus"}],"stateMutability":"view"},{"type":"function","name":"setCoordinator","inputs":[{"name":"_vrfCoordinator","type":"address","internalType":"address"}],"outputs":[],"stateMutability":"nonpayable"},{"type":"function","name":"transferOwnership","inputs":[{"name":"to","type":"address","internalType":"address"}],"outputs":[],"stateMutability":"nonpayable"},{"type":"event","name":"EnteredRaffle","inputs":[{"name":"player","type":"address","indexed":true,"internalType":"address"}],"anonymous":false},{"type":"event","name":"OwnershipTransferRequested","inputs":[{"name":"from","type":"address","indexed":true,"internalType":"address"},{"name":"to","type":"address","indexed":true,"internalType":"address"}],"anonymous":false},{"type":"event","name":"OwnershipTransferred","inputs":[{"name":"from","type":"address","indexed":true,"internalType":"address"},{"name":"to","type":"address","indexed":true,"internalType":"address"}],"anonymous":false},{"type":"error","name":"OnlyCoordinatorCanFulfill","inputs":[{"name":"have","type":"address","internalType":"address"},{"name":"want","type":"address","internalType":"address"}]},{"type":"error","name":"OnlyOwnerOrCoordinator","inputs":[{"name":"have","type":"address","internalType":"address"},{"name":"owner","type":"address","internalType":"address"},{"name":"coordinator","type":"address","internalType":"address"}]},{"type":"error","name":"Raffle__NotEnoughEthSent","inputs":[]},{"type":"error","name":"Raffle__TransferFailed","inputs":[]},{"type":"error","name":"ZeroAddress","inputs":[]}],"bytecode":{"object":"0x610140604052348015610010575f5ffd5b50604051610c6d380380610c6d83398101604081905261002f916101b0565b8333805f816100855760405162461bcd60e51b815260206004820152601860248201527f43616e6e6f7420736574206f776e657220746f207a65726f000000000000000060448201526064015b60405180910390fd5b5f80546001600160a01b0319166001600160a01b03848116919091179091558116156100b4576100b481610108565b5050600280546001600160a01b0319166001600160a01b0393909316929092179091555060809590955260a0939093524260045560e052506001600160401b03166101005263ffffffff1661012052610234565b336001600160a01b038216036101605760405162461bcd60e51b815260206004820152601760248201527f43616e6e6f74207472616e7366657220746f2073656c66000000000000000000604482015260640161007c565b600180546001600160a01b0319166001600160a01b038381169182179092555f8054604051929316917fed8889f560326eb138920d842192f0eb3dd22b4f139c87a2c57538e05bae12789190a350565b5f5f5f5f5f5f60c087890312156101c5575f5ffd5b86516020880151604089015191975095506001600160a01b03811681146101ea575f5ffd5b6060880151608089015191955093506001600160401b038116811461020d575f5ffd5b60a088015190925063ffffffff81168114610226575f5ffd5b809150509295509295509295565b60805160a05160c05160e05161010051610120516109ef61027e5f395f61034e01525f61031301525f6102ed01525f50505f6102a801525f8181609901526101fa01526109ef5ff3fe608060405260043610610084575f3560e01c806379ba50971161005757806379ba5097146101045780638da5cb5b146101185780638ea98117146101485780639eccacf614610167578063f2fde38b14610186575f5ffd5b806309bc33a7146100885780631fe543e3146100c75780632cfcc539146100e85780635d495aea146100f0575b5f5ffd5b348015610093575f5ffd5b506040517f000000000000000000000000000000000000000000000000000000000000000081526020015b60405180910390f35b3480156100d2575f5ffd5b506100e66100e13660046107c6565b6101a5565b005b6100e66101f8565b3480156100fb575f5ffd5b506100e66102a6565b34801561010f575f5ffd5b506100e661041a565b348015610123575f5ffd5b505f546001600160a01b03165b6040516001600160a01b0390911681526020016100be565b348015610153575f5ffd5b506100e661016236600461089a565b6104c3565b348015610172575f5ffd5b50600254610130906001600160a01b031681565b348015610191575f5ffd5b506100e66101a036600461089a565b61055a565b6002546001600160a01b031633146101ea5760025460405163073e64fd60e21b81523360048201526001600160a01b0390911660248201526044015b60405180910390fd5b6101f4828261056e565b5050565b7f00000000000000000000000000000000000000000000000000000000000000003410156102395760405163246b904d60e01b815260040160405180910390fd5b600380546001810182555f9182527fc2575a0e9e593c00f959f8c92f12db2869c3395a3b0502d05e2516446f71f85b0180546001600160a01b0319163390811790915560405190917f819fbd717c9d0b421352c5116a644ca68ba176960c33f406f08d98a27370ca2791a2565b7f0000000000000000000000000000000000000000000000000000000000000000600454426102d591906108c7565b10156102df575f5ffd5b5f6040518060c001604052807f000000000000000000000000000000000000000000000000000000000000000081526020017f000000000000000000000000000000000000000000000000000000000000000067ffffffffffffffff168152602001600361ffff1681526020017f000000000000000000000000000000000000000000000000000000000000000063ffffffff168152602001600163ffffffff16815260200161039e60405180602001604052805f1515815250610645565b9052600254604051634d8e1c2f60e11b81529192505f916001600160a01b0390911690639b1c385e906103d59085906004016108ec565b6020604051808303815f875af11580156103f1573d5f5f3e3d5ffd5b505050506040513d601f19601f82011682018060405250810190610415919061096f565b505050565b6001546001600160a01b0316331461046d5760405162461bcd60e51b815260206004820152601660248201527526bab9ba10313290383937b837b9b2b21037bbb732b960511b60448201526064016101e1565b5f8054336001600160a01b0319808316821784556001805490911690556040516001600160a01b0390921692909183917f8be0079c531659141344cd1fd0a4f28419497f9722a3daafe3b4186f6b6457e091a350565b5f546001600160a01b031633148015906104e857506002546001600160a01b03163314155b1561053857336104ff5f546001600160a01b031690565b60025460405163061db9c160e01b81526001600160a01b03938416600482015291831660248301529190911660448201526064016101e1565b600280546001600160a01b0319166001600160a01b0392909216919091179055565b6105626106b6565b61056b8161070a565b50565b5f600380549050825f8151811061058757610587610986565b6020026020010151610599919061099a565b90505f600382815481106105af576105af610986565b5f918252602082200154600580546001600160a01b0319166001600160a01b039092169182179055604051909250829047908381818185875af1925050503d805f8114610617576040519150601f19603f3d011682016040523d82523d5f602084013e61061c565b606091505b505090508061063e5760405163a1d04b3960e01b815260040160405180910390fd5b5050505050565b60607f92fd13387c7fe7befbc38d303d6468778fb9731bc4583f17d92989c6fcfdeaaa8260405160240161067e91511515815260200190565b60408051601f198184030181529190526020810180516001600160e01b03166001600160e01b03199093169290921790915292915050565b5f546001600160a01b031633146107085760405162461bcd60e51b815260206004820152601660248201527527b7363c9031b0b63630b1363290313c9037bbb732b960511b60448201526064016101e1565b565b336001600160a01b038216036107625760405162461bcd60e51b815260206004820152601760248201527f43616e6e6f74207472616e7366657220746f2073656c6600000000000000000060448201526064016101e1565b600180546001600160a01b0319166001600160a01b038381169182179092555f8054604051929316917fed8889f560326eb138920d842192f0eb3dd22b4f139c87a2c57538e05bae12789190a350565b634e487b7160e01b5f52604160045260245ffd5b5f5f604083850312156107d7575f5ffd5b82359150602083013567ffffffffffffffff8111156107f4575f5ffd5b8301601f81018513610804575f5ffd5b803567ffffffffffffffff81111561081e5761081e6107b2565b8060051b604051601f19603f830116810181811067ffffffffffffffff8211171561084b5761084b6107b2565b604052918252602081840181019290810188841115610868575f5ffd5b6020850194505b8385101561088b5784358082526020958601959093500161086f565b50809450505050509250929050565b5f602082840312156108aa575f5ffd5b81356001600160a01b03811681146108c0575f5ffd5b9392505050565b818103818111156108e657634e487b7160e01b5f52601160045260245ffd5b92915050565b60208152815160208201526020820151604082015261ffff604083015116606082015263ffffffff606083015116608082015263ffffffff60808301511660a08201525f60a083015160c08084015280518060e0850152806020830161010086015e5f6101008286010152610100601f19601f8301168501019250505092915050565b5f6020828403121561097f575f5ffd5b5051919050565b634e487b7160e01b5f52603260045260245ffd5b5f826109b457634e487b7160e01b5f52601260045260245ffd5b50069056fea2646970667358221220cb311f7ea6c766c4b4c7d5d93d4827fbb138e27f36da5b92be9d6bc3c86a1f0464736f6c634300081c0033","linkReferences":{}},"methodIdentifiers":{"acceptOwnership()":"79ba5097","enterRaffle()":"2cfcc539","getEntranceFee()":"09bc33a7","owner()":"8da5cb5b","pickWinner()":"5d495aea","rawFulfillRandomWords(uint256,uint256[])":"1fe543e3","s_vrfCoordinator()":"9eccacf6","setCoordinator(address)":"8ea98117","transferOwnership(address)":"f2fde38b"},"id":8}