{"abi":[{"type":"constructor","inputs":[{"name":"entranceFee","type":"uint256","internalType":"uint256"},{"name":"interval","type":"uint256","internalType":"uint256"},{"name":"vrfCoordinator","type":"address","internalType":"address"},{"name":"gasLane","type":"bytes32","internalType":"bytes32"},{"name":"subscriptionId","type":"uint256","internalType":"uint256"},{"name":"callbackGasLimit","type":"uint32","internalType":"uint32"}],"stateMutability":"nonpayable"},{"type":"function","name":"acceptOwnership","inputs":[],"outputs":[],"stateMutability":"nonpayable"},{"type":"function","name":"checkUpkeep","inputs":[{"name":"","type":"bytes","internalType":"bytes"}],"outputs":[{"name":"upkeepNeeded","type":"bool","internalType":"bool"},{"name":"","type":"bytes","internalType":"bytes"}],"stateMutability":"view"},{"type":"function","name":"enterRaffle","inputs":[],"outputs":[],"stateMutability":"payable"},{"type":"function","name":"getEntranceFee","inputs":[],"outputs":[{"name":"","type":"uint256","internalType":"uint256"}],"stateMutability":"view"},{"type":"function","name":"getPlayer","inputs":[{"name":"indexOfPlayer","type":"uint256","internalType":"uint256"}],"outputs":[{"name":"","type":"address","internalType":"address"}],"stateMutability":"view"},{"type":"function","name":"getRaffleState","inputs":[],"outputs":[{"name":"","type":"uint8","internalType":"enum Raffle.RaffleState"}],"stateMutability":"view"},{"type":"function","name":"owner","inputs":[],"outputs":[{"name":"","type":"address","internalType":"address"}],"stateMutability":"view"},{"type":"function","name":"performUpkeep","inputs":[{"name":"","type":"bytes","internalType":"bytes"}],"outputs":[],"stateMutability":"nonpayable"},{"type":"function","name":"rawFulfillRandomWords","inputs":[{"name":"requestId","type":"uint256","internalType":"uint256"},{"name":"randomWords","type":"uint256[]","internalType":"uint256[]"}],"outputs":[],"stateMutability":"nonpayable"},{"type":"function","name":"s_vrfCoordinator","inputs":[],"outputs":[{"name":"","type":"address","internalType":"contract IVRFCoordinatorV2Plus"}],"stateMutability":"view"},{"type":"function","name":"setCoordinator","inputs":[{"name":"_vrfCoordinator","type":"address","internalType":"address"}],"outputs":[],"stateMutability":"nonpayable"},{"type":"function","name":"transferOwnership","inputs":[{"name":"to","type":"address","internalType":"address"}],"outputs":[],"stateMutability":"nonpayable"},{"type":"event","name":"EnteredRaffle","inputs":[{"name":"player","type":"address","indexed":true,"internalType":"address"}],"anonymous":false},{"type":"event","name":"OwnershipTransferRequested","inputs":[{"name":"from","type":"address","indexed":true,"internalType":"address"},{"name":"to","type":"address","indexed":true,"internalType":"address"}],"anonymous":false},{"type":"event","name":"OwnershipTransferred","inputs":[{"name":"from","type":"address","indexed":true,"internalType":"address"},{"name":"to","type":"address","indexed":true,"internalType":"address"}],"anonymous":false},{"type":"event","name":"PickedWinner","inputs":[{"name":"winner","type":"address","indexed":false,"internalType":"address"}],"anonymous":false},{"type":"error","name":"OnlyCoordinatorCanFulfill","inputs":[{"name":"have","type":"address","internalType":"address"},{"name":"want","type":"address","internalType":"address"}]},{"type":"error","name":"OnlyOwnerOrCoordinator","inputs":[{"name":"have","type":"address","internalType":"address"},{"name":"owner","type":"address","internalType":"address"},{"name":"coordinator","type":"address","internalType":"address"}]},{"type":"error","name":"Raffle__NotEnoughEthSent","inputs":[]},{"type":"error","name":"Raffle__RaffleNotOpen","inputs":[]},{"type":"error","name":"Raffle__TransferFailed","inputs":[]},{"type":"error","name":"Raffle__UpkeepNotNeeded","inputs":[{"name":"balance","type":"uint256","internalType":"uint256"},{"name":"length","type":"uint256","internalType":"uint256"},{"name":"raffleState","type":"uint256","internalType":"uint256"}]},{"type":"error","name":"ZeroAddress","inputs":[]}],"bytecode":{"object":"0x61012060405234801561001157600080fd5b50604051611113380380611113833981016040819052610030916101b7565b8333806000816100875760405162461bcd60e51b815260206004820152601860248201527f43616e6e6f7420736574206f776e657220746f207a65726f000000000000000060448201526064015b60405180910390fd5b600080546001600160a01b0319166001600160a01b03848116919091179091558116156100b7576100b78161010e565b5050600280546001600160a01b0319166001600160a01b0393909316929092179091555060809590955260a0939093524260045560c0525060e05263ffffffff16610100526005805460ff60a01b1916905561022d565b336001600160a01b038216036101665760405162461bcd60e51b815260206004820152601760248201527f43616e6e6f74207472616e7366657220746f2073656c66000000000000000000604482015260640161007e565b600180546001600160a01b0319166001600160a01b0383811691821790925560008054604051929316917fed8889f560326eb138920d842192f0eb3dd22b4f139c87a2c57538e05bae12789190a350565b60008060008060008060c087890312156101d057600080fd5b86516020880151604089015191975095506001600160a01b03811681146101f657600080fd5b80945050606087015192506080870151915060a087015163ffffffff8116811461021f57600080fd5b809150509295509295509295565b60805160a05160c05160e05161010051610e9c610277600039600061046801526000610437015260006104110152600061056601526000818160be01526102a70152610e9c6000f3fe6080604052600436106100a75760003560e01c806379ba50971161006457806379ba50971461018b5780638da5cb5b146101a05780638ea98117146101d25780639eccacf6146101f2578063e55ae4e814610212578063f2fde38b1461023257600080fd5b806309bc33a7146100ac578063115cbaf5146100ec5780631fe543e3146101135780632cfcc539146101355780634585e33b1461013d5780636e04ff0d1461015d575b600080fd5b3480156100b857600080fd5b506040517f000000000000000000000000000000000000000000000000000000000000000081526020015b60405180910390f35b3480156100f857600080fd5b50600554600160a01b900460ff166040516100e39190610ab7565b34801561011f57600080fd5b5061013361012e366004610b26565b610252565b005b6101336102a5565b34801561014957600080fd5b50610133610158366004610bd8565b610392565b34801561016957600080fd5b5061017d610178366004610c4a565b610536565b6040516100e3929190610d25565b34801561019757600080fd5b506101336105e7565b3480156101ac57600080fd5b506000546001600160a01b03165b6040516001600160a01b0390911681526020016100e3565b3480156101de57600080fd5b506101336101ed366004610d48565b610691565b3480156101fe57600080fd5b506002546101ba906001600160a01b031681565b34801561021e57600080fd5b506101ba61022d366004610d78565b61072a565b34801561023e57600080fd5b5061013361024d366004610d48565b61075a565b6002546001600160a01b031633146102975760025460405163073e64fd60e21b81523360048201526001600160a01b0390911660248201526044015b60405180910390fd5b6102a1828261076e565b5050565b7f00000000000000000000000000000000000000000000000000000000000000003410156102e65760405163246b904d60e01b815260040160405180910390fd5b6000600554600160a01b900460ff16600181111561030657610306610aa1565b146103245760405163349289c560e21b815260040160405180910390fd5b6003805460018101825560009182527fc2575a0e9e593c00f959f8c92f12db2869c3395a3b0502d05e2516446f71f85b0180546001600160a01b0319163390811790915560405190917f819fbd717c9d0b421352c5116a644ca68ba176960c33f406f08d98a27370ca2791a2565b60006103ac60405180602001604052806000815250610536565b5090508061040257600354600554479190600160a01b900460ff1660018111156103d8576103d8610aa1565b604051632c2193d560e11b815260048101939093526024830191909152604482015260640161028e565b60006040518060c001604052807f000000000000000000000000000000000000000000000000000000000000000081526020017f00000000000000000000000000000000000000000000000000000000000000008152602001600361ffff1681526020017f000000000000000000000000000000000000000000000000000000000000000063ffffffff168152602001600163ffffffff1681526020016104b96040518060200160405280600015158152506108b8565b9052600254604051634d8e1c2f60e11b81529192506001600160a01b031690639b1c385e906104ec908490600401610d91565b6020604051808303816000875af115801561050b573d6000803e3d6000fd5b505050506040513d601f19601f8201168201806040525081019061052f9190610dee565b5050505050565b600060606000600560149054906101000a900460ff16600181111561055d5761055d610aa1565b600014905060007f0000000000000000000000000000000000000000000000000000000000000000600454426105939190610e07565b600354911180159250901515904715159083906105ad5750835b80156105b65750805b80156105bf5750815b60408051808201909152600381526203078360ec1b6020820152909890975095505050505050565b6001546001600160a01b0316331461063a5760405162461bcd60e51b815260206004820152601660248201527526bab9ba10313290383937b837b9b2b21037bbb732b960511b604482015260640161028e565b60008054336001600160a01b0319808316821784556001805490911690556040516001600160a01b0390921692909183917f8be0079c531659141344cd1fd0a4f28419497f9722a3daafe3b4186f6b6457e091a350565b6000546001600160a01b031633148015906106b757506002546001600160a01b03163314155b1561070857336106cf6000546001600160a01b031690565b60025460405163061db9c160e01b81526001600160a01b039384166004820152918316602483015291909116604482015260640161028e565b600280546001600160a01b0319166001600160a01b0392909216919091179055565b60006003828154811061073f5761073f610e2e565b6000918252602090912001546001600160a01b031692915050565b610762610929565b61076b8161097e565b50565b60006003805490508260008151811061078957610789610e2e565b602002602001015161079b9190610e44565b90506000600382815481106107b2576107b2610e2e565b600091825260208083209190910154600580546001600160a81b0319166001600160a01b039092169182179055604080519384529183019182905291519192506107ff9160039190610a27565b50426004556005546040516001600160a01b0390911681527fb112587e57bfa970257f3d54fc52859c6300f6bd7a982462c320fed45c2530ed9060200160405180910390a16000816001600160a01b03164760405160006040518083038185875af1925050503d8060008114610891576040519150601f19603f3d011682016040523d82523d6000602084013e610896565b606091505b505090508061052f5760405163a1d04b3960e01b815260040160405180910390fd5b60607f92fd13387c7fe7befbc38d303d6468778fb9731bc4583f17d92989c6fcfdeaaa826040516024016108f191511515815260200190565b60408051601f198184030181529190526020810180516001600160e01b03166001600160e01b03199093169290921790915292915050565b6000546001600160a01b0316331461097c5760405162461bcd60e51b815260206004820152601660248201527527b7363c9031b0b63630b1363290313c9037bbb732b960511b604482015260640161028e565b565b336001600160a01b038216036109d65760405162461bcd60e51b815260206004820152601760248201527f43616e6e6f74207472616e7366657220746f2073656c66000000000000000000604482015260640161028e565b600180546001600160a01b0319166001600160a01b0383811691821790925560008054604051929316917fed8889f560326eb138920d842192f0eb3dd22b4f139c87a2c57538e05bae12789190a350565b828054828255906000526020600020908101928215610a7c579160200282015b82811115610a7c57825182546001600160a01b0319166001600160a01b03909116178255602090920191600190910190610a47565b50610a88929150610a8c565b5090565b5b80821115610a885760008155600101610a8d565b634e487b7160e01b600052602160045260246000fd5b6020810160028310610ad957634e487b7160e01b600052602160045260246000fd5b91905290565b634e487b7160e01b600052604160045260246000fd5b604051601f8201601f1916810167ffffffffffffffff81118282101715610b1e57610b1e610adf565b604052919050565b60008060408385031215610b3957600080fd5b8235915060208084013567ffffffffffffffff80821115610b5957600080fd5b818601915086601f830112610b6d57600080fd5b813581811115610b7f57610b7f610adf565b8060051b9150610b90848301610af5565b8181529183018401918481019089841115610baa57600080fd5b938501935b83851015610bc857843582529385019390850190610baf565b8096505050505050509250929050565b60008060208385031215610beb57600080fd5b823567ffffffffffffffff80821115610c0357600080fd5b818501915085601f830112610c1757600080fd5b813581811115610c2657600080fd5b866020828501011115610c3857600080fd5b60209290920196919550909350505050565b60006020808385031215610c5d57600080fd5b823567ffffffffffffffff80821115610c7557600080fd5b818501915085601f830112610c8957600080fd5b813581811115610c9b57610c9b610adf565b610cad601f8201601f19168501610af5565b91508082528684828501011115610cc357600080fd5b8084840185840137600090820190930192909252509392505050565b6000815180845260005b81811015610d0557602081850181015186830182015201610ce9565b506000602082860101526020601f19601f83011685010191505092915050565b8215158152604060208201526000610d406040830184610cdf565b949350505050565b600060208284031215610d5a57600080fd5b81356001600160a01b0381168114610d7157600080fd5b9392505050565b600060208284031215610d8a57600080fd5b5035919050565b60208152815160208201526020820151604082015261ffff60408301511660608201526000606083015163ffffffff80821660808501528060808601511660a0850152505060a083015160c080840152610d4060e0840182610cdf565b600060208284031215610e0057600080fd5b5051919050565b81810381811115610e2857634e487b7160e01b600052601160045260246000fd5b92915050565b634e487b7160e01b600052603260045260246000fd5b600082610e6157634e487b7160e01b600052601260045260246000fd5b50069056fea2646970667358221220edaf46832e6a78abcd4eaf400488ac4a1adc0db9a326f64e636726511b9a885064736f6c63430008130033","linkReferences":{}},"methodIdentifiers":{"acceptOwnership()":"79ba5097","checkUpkeep(bytes)":"6e04ff0d","enterRaffle()":"2cfcc539","getEntranceFee()":"09bc33a7","getPlayer(uint256)":"e55ae4e8","getRaffleState()":"115cbaf5","owner()":"8da5cb5b","performUpkeep(bytes)":"4585e33b","rawFulfillRandomWords(uint256,uint256[])":"1fe543e3","s_vrfCoordinator()":"9eccacf6","setCoordinator(address)":"8ea98117","transferOwnership(address)":"f2fde38b"},"id":45}