{"abi":[{"type":"constructor","inputs":[{"name":"entranceFee","type":"uint256","internalType":"uint256"},{"name":"interval","type":"uint256","internalType":"uint256"},{"name":"vrfCoordinator","type":"address","internalType":"address"},{"name":"gasLane","type":"bytes32","internalType":"bytes32"},{"name":"subscriptionId","type":"uint256","internalType":"uint256"},{"name":"callbackGasLimit","type":"uint32","internalType":"uint32"}],"stateMutability":"nonpayable"},{"type":"function","name":"acceptOwnership","inputs":[],"outputs":[],"stateMutability":"nonpayable"},{"type":"function","name":"checkUpkeep","inputs":[{"name":"","type":"bytes","internalType":"bytes"}],"outputs":[{"name":"upkeepNeeded","type":"bool","internalType":"bool"},{"name":"","type":"bytes","internalType":"bytes"}],"stateMutability":"view"},{"type":"function","name":"enterRaffle","inputs":[],"outputs":[],"stateMutability":"payable"},{"type":"function","name":"getEntranceFee","inputs":[],"outputs":[{"name":"","type":"uint256","internalType":"uint256"}],"stateMutability":"view"},{"type":"function","name":"getLastTimeStamp","inputs":[],"outputs":[{"name":"","type":"uint256","internalType":"uint256"}],"stateMutability":"view"},{"type":"function","name":"getPlayer","inputs":[{"name":"indexOfPlayer","type":"uint256","internalType":"uint256"}],"outputs":[{"name":"","type":"address","internalType":"address"}],"stateMutability":"view"},{"type":"function","name":"getRaffleState","inputs":[],"outputs":[{"name":"","type":"uint8","internalType":"enum Raffle.RaffleState"}],"stateMutability":"view"},{"type":"function","name":"getRecentWinner","inputs":[],"outputs":[{"name":"","type":"address","internalType":"address"}],"stateMutability":"view"},{"type":"function","name":"owner","inputs":[],"outputs":[{"name":"","type":"address","internalType":"address"}],"stateMutability":"view"},{"type":"function","name":"performUpkeep","inputs":[{"name":"","type":"bytes","internalType":"bytes"}],"outputs":[],"stateMutability":"nonpayable"},{"type":"function","name":"rawFulfillRandomWords","inputs":[{"name":"requestId","type":"uint256","internalType":"uint256"},{"name":"randomWords","type":"uint256[]","internalType":"uint256[]"}],"outputs":[],"stateMutability":"nonpayable"},{"type":"function","name":"s_vrfCoordinator","inputs":[],"outputs":[{"name":"","type":"address","internalType":"contract IVRFCoordinatorV2Plus"}],"stateMutability":"view"},{"type":"function","name":"setCoordinator","inputs":[{"name":"_vrfCoordinator","type":"address","internalType":"address"}],"outputs":[],"stateMutability":"nonpayable"},{"type":"function","name":"transferOwnership","inputs":[{"name":"to","type":"address","internalType":"address"}],"outputs":[],"stateMutability":"nonpayable"},{"type":"event","name":"EnteredRaffle","inputs":[{"name":"player","type":"address","indexed":true,"internalType":"address"}],"anonymous":false},{"type":"event","name":"OwnershipTransferRequested","inputs":[{"name":"from","type":"address","indexed":true,"internalType":"address"},{"name":"to","type":"address","indexed":true,"internalType":"address"}],"anonymous":false},{"type":"event","name":"OwnershipTransferred","inputs":[{"name":"from","type":"address","indexed":true,"internalType":"address"},{"name":"to","type":"address","indexed":true,"internalType":"address"}],"anonymous":false},{"type":"event","name":"PickedWinner","inputs":[{"name":"winner","type":"address","indexed":false,"internalType":"address"}],"anonymous":false},{"type":"event","name":"RequestedRaffleWiner","inputs":[{"name":"requestId","type":"uint256","indexed":true,"internalType":"uint256"}],"anonymous":false},{"type":"error","name":"OnlyCoordinatorCanFulfill","inputs":[{"name":"have","type":"address","internalType":"address"},{"name":"want","type":"address","internalType":"address"}]},{"type":"error","name":"OnlyOwnerOrCoordinator","inputs":[{"name":"have","type":"address","internalType":"address"},{"name":"owner","type":"address","internalType":"address"},{"name":"coordinator","type":"address","internalType":"address"}]},{"type":"error","name":"Raffle__NotEnoughEthSent","inputs":[]},{"type":"error","name":"Raffle__RaffleNotOpen","inputs":[]},{"type":"error","name":"Raffle__TransferFailed","inputs":[]},{"type":"error","name":"Raffle__UpkeepNotNeeded","inputs":[{"name":"balance","type":"uint256","internalType":"uint256"},{"name":"length","type":"uint256","internalType":"uint256"},{"name":"raffleState","type":"uint256","internalType":"uint256"}]},{"type":"error","name":"ZeroAddress","inputs":[]}],"bytecode":{"object":"0x6101206040523480156200001257600080fd5b506040516200240b3803806200240b833981810160405281019062000038919062000440565b83338060008073ffffffffffffffffffffffffffffffffffffffff168273ffffffffffffffffffffffffffffffffffffffff1603620000ae576040517f08c379a0000000000000000000000000000000000000000000000000000000008152600401620000a5906200053d565b60405180910390fd5b816000806101000a81548173ffffffffffffffffffffffffffffffffffffffff021916908373ffffffffffffffffffffffffffffffffffffffff160217905550600073ffffffffffffffffffffffffffffffffffffffff168173ffffffffffffffffffffffffffffffffffffffff161462000135576200013481620001f060201b60201c565b5b50505080600260006101000a81548173ffffffffffffffffffffffffffffffffffffffff021916908373ffffffffffffffffffffffffffffffffffffffff1602179055505085608081815250508460a08181525050426004819055508260c081815250508160e081815250508063ffffffff166101008163ffffffff16815250506000600560146101000a81548160ff02191690836001811115620001df57620001de6200055f565b5b021790555050505050505062000600565b3373ffffffffffffffffffffffffffffffffffffffff168173ffffffffffffffffffffffffffffffffffffffff160362000261576040517f08c379a00000000000000000000000000000000000000000000000000000000081526004016200025890620005de565b60405180910390fd5b80600160006101000a81548173ffffffffffffffffffffffffffffffffffffffff021916908373ffffffffffffffffffffffffffffffffffffffff1602179055508073ffffffffffffffffffffffffffffffffffffffff1660008054906101000a900473ffffffffffffffffffffffffffffffffffffffff1673ffffffffffffffffffffffffffffffffffffffff167fed8889f560326eb138920d842192f0eb3dd22b4f139c87a2c57538e05bae127860405160405180910390a350565b600080fd5b6000819050919050565b620003398162000324565b81146200034557600080fd5b50565b60008151905062000359816200032e565b92915050565b600073ffffffffffffffffffffffffffffffffffffffff82169050919050565b60006200038c826200035f565b9050919050565b6200039e816200037f565b8114620003aa57600080fd5b50565b600081519050620003be8162000393565b92915050565b6000819050919050565b620003d981620003c4565b8114620003e557600080fd5b50565b600081519050620003f981620003ce565b92915050565b600063ffffffff82169050919050565b6200041a81620003ff565b81146200042657600080fd5b50565b6000815190506200043a816200040f565b92915050565b60008060008060008060c0878903121562000460576200045f6200031f565b5b60006200047089828a0162000348565b96505060206200048389828a0162000348565b95505060406200049689828a01620003ad565b9450506060620004a989828a01620003e8565b9350506080620004bc89828a0162000348565b92505060a0620004cf89828a0162000429565b9150509295509295509295565b600082825260208201905092915050565b7f43616e6e6f7420736574206f776e657220746f207a65726f0000000000000000600082015250565b600062000525601883620004dc565b91506200053282620004ed565b602082019050919050565b60006020820190508181036000830152620005588162000516565b9050919050565b7f4e487b7100000000000000000000000000000000000000000000000000000000600052602160045260246000fd5b7f43616e6e6f74207472616e7366657220746f2073656c66000000000000000000600082015250565b6000620005c6601783620004dc565b9150620005d3826200058e565b602082019050919050565b60006020820190508181036000830152620005f981620005b7565b9050919050565b60805160a05160c05160e05161010051611dbf6200064c60003960006106b00152600061067f015260006106590152600061084901526000818161032801526104290152611dbf6000f3fe6080604052600436106100dd5760003560e01c806379ba50971161007f5780639eccacf6116100595780639eccacf614610268578063c1c244e814610293578063e55ae4e8146102be578063f2fde38b146102fb576100dd565b806379ba5097146101fd5780638da5cb5b146102145780638ea981171461023f576100dd565b80632cfcc539116100bb5780632cfcc539146101615780634585e33b1461016b578063473f1ddc146101945780636e04ff0d146101bf576100dd565b806309bc33a7146100e2578063115cbaf51461010d5780631fe543e314610138575b600080fd5b3480156100ee57600080fd5b506100f7610324565b60405161010491906111da565b60405180910390f35b34801561011957600080fd5b5061012261034c565b60405161012f919061126c565b60405180910390f35b34801561014457600080fd5b5061015f600480360381019061015a9190611420565b610363565b005b610169610427565b005b34801561017757600080fd5b50610192600480360381019061018d91906114d7565b610596565b005b3480156101a057600080fd5b506101a96107dc565b6040516101b69190611565565b60405180910390f35b3480156101cb57600080fd5b506101e660048036038101906101e19190611635565b610806565b6040516101f4929190611718565b60405180910390f35b34801561020957600080fd5b506102126108ef565b005b34801561022057600080fd5b50610229610a84565b6040516102369190611565565b60405180910390f35b34801561024b57600080fd5b5061026660048036038101906102619190611774565b610aad565b005b34801561027457600080fd5b5061027d610bf1565b60405161028a9190611800565b60405180910390f35b34801561029f57600080fd5b506102a8610c17565b6040516102b591906111da565b60405180910390f35b3480156102ca57600080fd5b506102e560048036038101906102e0919061181b565b610c21565b6040516102f29190611565565b60405180910390f35b34801561030757600080fd5b50610322600480360381019061031d9190611774565b610c69565b005b60007f0000000000000000000000000000000000000000000000000000000000000000905090565b6000600560149054906101000a900460ff16905090565b600260009054906101000a900473ffffffffffffffffffffffffffffffffffffffff1673ffffffffffffffffffffffffffffffffffffffff163373ffffffffffffffffffffffffffffffffffffffff16146104195733600260009054906101000a900473ffffffffffffffffffffffffffffffffffffffff166040517f1cf993f4000000000000000000000000000000000000000000000000000000008152600401610410929190611848565b60405180910390fd5b6104238282610c7d565b5050565b7f0000000000000000000000000000000000000000000000000000000000000000341015610481576040517f246b904d00000000000000000000000000000000000000000000000000000000815260040160405180910390fd5b60006001811115610495576104946111f5565b5b600560149054906101000a900460ff1660018111156104b7576104b66111f5565b5b146104ee576040517fd24a271400000000000000000000000000000000000000000000000000000000815260040160405180910390fd5b6003339080600181540180825580915050600190039060005260206000200160009091909190916101000a81548173ffffffffffffffffffffffffffffffffffffffff021916908373ffffffffffffffffffffffffffffffffffffffff1602179055503373ffffffffffffffffffffffffffffffffffffffff167f819fbd717c9d0b421352c5116a644ca68ba176960c33f406f08d98a27370ca2760405160405180910390a2565b60006105b060405180602001604052806000815250610806565b5090508061061f5747600380549050600560149054906101000a900460ff1660018111156105e1576105e06111f5565b5b6040517f584327aa00000000000000000000000000000000000000000000000000000000815260040161061693929190611871565b60405180910390fd5b6001600560146101000a81548160ff02191690836001811115610645576106446111f5565b5b021790555060006040518060c001604052807f000000000000000000000000000000000000000000000000000000000000000081526020017f00000000000000000000000000000000000000000000000000000000000000008152602001600361ffff1681526020017f000000000000000000000000000000000000000000000000000000000000000063ffffffff168152602001600163ffffffff168152602001610701604051806020016040528060001515815250610ec6565b81525090506000600260009054906101000a900473ffffffffffffffffffffffffffffffffffffffff1673ffffffffffffffffffffffffffffffffffffffff16639b1c385e836040518263ffffffff1660e01b815260040161076391906119df565b6020604051808303816000875af1158015610782573d6000803e3d6000fd5b505050506040513d601f19601f820116820180604052508101906107a69190611a16565b9050807f7ee9068b749bce0661022d0e582fc16c5b092d3a7031b646c6cc3409996dac9160405160405180910390a25050505050565b6000600560009054906101000a900473ffffffffffffffffffffffffffffffffffffffff16905090565b600060606000600560149054906101000a900460ff16600181111561082e5761082d6111f5565b5b60006001811115610842576108416111f5565b5b14905060007f0000000000000000000000000000000000000000000000000000000000000000600454426108769190611a72565b10159050600080600380549050119050600080471190508280156108975750835b80156108a05750805b80156108a95750815b9550856040518060400160405280600381526020017f30783000000000000000000000000000000000000000000000000000000000008152509550955050505050915091565b600160009054906101000a900473ffffffffffffffffffffffffffffffffffffffff1673ffffffffffffffffffffffffffffffffffffffff163373ffffffffffffffffffffffffffffffffffffffff161461097f576040517f08c379a000000000000000000000000000000000000000000000000000000000815260040161097690611b03565b60405180910390fd5b60008060009054906101000a900473ffffffffffffffffffffffffffffffffffffffff169050336000806101000a81548173ffffffffffffffffffffffffffffffffffffffff021916908373ffffffffffffffffffffffffffffffffffffffff1602179055506000600160006101000a81548173ffffffffffffffffffffffffffffffffffffffff021916908373ffffffffffffffffffffffffffffffffffffffff1602179055503373ffffffffffffffffffffffffffffffffffffffff168173ffffffffffffffffffffffffffffffffffffffff167f8be0079c531659141344cd1fd0a4f28419497f9722a3daafe3b4186f6b6457e060405160405180910390a350565b60008060009054906101000a900473ffffffffffffffffffffffffffffffffffffffff16905090565b610ab5610a84565b73ffffffffffffffffffffffffffffffffffffffff163373ffffffffffffffffffffffffffffffffffffffff1614158015610b3e5750600260009054906101000a900473ffffffffffffffffffffffffffffffffffffffff1673ffffffffffffffffffffffffffffffffffffffff163373ffffffffffffffffffffffffffffffffffffffff1614155b15610bad5733610b4c610a84565b600260009054906101000a900473ffffffffffffffffffffffffffffffffffffffff166040517f061db9c1000000000000000000000000000000000000000000000000000000008152600401610ba493929190611b23565b60405180910390fd5b80600260006101000a81548173ffffffffffffffffffffffffffffffffffffffff021916908373ffffffffffffffffffffffffffffffffffffffff16021790555050565b600260009054906101000a900473ffffffffffffffffffffffffffffffffffffffff1681565b6000600454905090565b600060038281548110610c3757610c36611b5a565b5b9060005260206000200160009054906101000a900473ffffffffffffffffffffffffffffffffffffffff169050919050565b610c71610f5e565b610c7a81610fee565b50565b600060038054905082600081518110610c9957610c98611b5a565b5b6020026020010151610cab9190611bb8565b9050600060038281548110610cc357610cc2611b5a565b5b9060005260206000200160009054906101000a900473ffffffffffffffffffffffffffffffffffffffff16905080600560006101000a81548173ffffffffffffffffffffffffffffffffffffffff021916908373ffffffffffffffffffffffffffffffffffffffff1602179055506000600560146101000a81548160ff02191690836001811115610d5757610d566111f5565b5b0217905550600067ffffffffffffffff811115610d7757610d766112dd565b5b604051908082528060200260200182016040528015610da55781602001602082028036833780820191505090505b5060039080519060200190610dbb92919061111a565b50426004819055507fb112587e57bfa970257f3d54fc52859c6300f6bd7a982462c320fed45c2530ed600560009054906101000a900473ffffffffffffffffffffffffffffffffffffffff16604051610e149190611c0a565b60405180910390a160008173ffffffffffffffffffffffffffffffffffffffff1647604051610e4290611c56565b60006040518083038185875af1925050503d8060008114610e7f576040519150601f19603f3d011682016040523d82523d6000602084013e610e84565b606091505b5050905080610ebf576040517fa1d04b3900000000000000000000000000000000000000000000000000000000815260040160405180910390fd5b5050505050565b60607f92fd13387c7fe7befbc38d303d6468778fb9731bc4583f17d92989c6fcfdeaaa82604051602401610efa9190611c96565b604051602081830303815290604052907bffffffffffffffffffffffffffffffffffffffffffffffffffffffff19166020820180517bffffffffffffffffffffffffffffffffffffffffffffffffffffffff83818316178352505050509050919050565b60008054906101000a900473ffffffffffffffffffffffffffffffffffffffff1673ffffffffffffffffffffffffffffffffffffffff163373ffffffffffffffffffffffffffffffffffffffff1614610fec576040517f08c379a0000000000000000000000000000000000000000000000000000000008152600401610fe390611cfd565b60405180910390fd5b565b3373ffffffffffffffffffffffffffffffffffffffff168173ffffffffffffffffffffffffffffffffffffffff160361105c576040517f08c379a000000000000000000000000000000000000000000000000000000000815260040161105390611d69565b60405180910390fd5b80600160006101000a81548173ffffffffffffffffffffffffffffffffffffffff021916908373ffffffffffffffffffffffffffffffffffffffff1602179055508073ffffffffffffffffffffffffffffffffffffffff1660008054906101000a900473ffffffffffffffffffffffffffffffffffffffff1673ffffffffffffffffffffffffffffffffffffffff167fed8889f560326eb138920d842192f0eb3dd22b4f139c87a2c57538e05bae127860405160405180910390a350565b828054828255906000526020600020908101928215611193579160200282015b828111156111925782518260006101000a81548173ffffffffffffffffffffffffffffffffffffffff021916908373ffffffffffffffffffffffffffffffffffffffff1602179055509160200191906001019061113a565b5b5090506111a091906111a4565b5090565b5b808211156111bd5760008160009055506001016111a5565b5090565b6000819050919050565b6111d4816111c1565b82525050565b60006020820190506111ef60008301846111cb565b92915050565b7f4e487b7100000000000000000000000000000000000000000000000000000000600052602160045260246000fd5b60028110611235576112346111f5565b5b50565b600081905061124682611224565b919050565b600061125682611238565b9050919050565b6112668161124b565b82525050565b6000602082019050611281600083018461125d565b92915050565b6000604051905090565b600080fd5b600080fd5b6112a4816111c1565b81146112af57600080fd5b50565b6000813590506112c18161129b565b92915050565b600080fd5b6000601f19601f8301169050919050565b7f4e487b7100000000000000000000000000000000000000000000000000000000600052604160045260246000fd5b611315826112cc565b810181811067ffffffffffffffff82111715611334576113336112dd565b5b80604052505050565b6000611347611287565b9050611353828261130c565b919050565b600067ffffffffffffffff821115611373576113726112dd565b5b602082029050602081019050919050565b600080fd5b600061139c61139784611358565b61133d565b905080838252602082019050602084028301858111156113bf576113be611384565b5b835b818110156113e857806113d488826112b2565b8452602084019350506020810190506113c1565b5050509392505050565b600082601f830112611407576114066112c7565b5b8135611417848260208601611389565b91505092915050565b6000806040838503121561143757611436611291565b5b6000611445858286016112b2565b925050602083013567ffffffffffffffff81111561146657611465611296565b5b611472858286016113f2565b9150509250929050565b600080fd5b60008083601f840112611497576114966112c7565b5b8235905067ffffffffffffffff8111156114b4576114b361147c565b5b6020830191508360018202830111156114d0576114cf611384565b5b9250929050565b600080602083850312156114ee576114ed611291565b5b600083013567ffffffffffffffff81111561150c5761150b611296565b5b61151885828601611481565b92509250509250929050565b600073ffffffffffffffffffffffffffffffffffffffff82169050919050565b600061154f82611524565b9050919050565b61155f81611544565b82525050565b600060208201905061157a6000830184611556565b92915050565b600080fd5b600067ffffffffffffffff8211156115a05761159f6112dd565b5b6115a9826112cc565b9050602081019050919050565b82818337600083830152505050565b60006115d86115d384611585565b61133d565b9050828152602081018484840111156115f4576115f3611580565b5b6115ff8482856115b6565b509392505050565b600082601f83011261161c5761161b6112c7565b5b813561162c8482602086016115c5565b91505092915050565b60006020828403121561164b5761164a611291565b5b600082013567ffffffffffffffff81111561166957611668611296565b5b61167584828501611607565b91505092915050565b60008115159050919050565b6116938161167e565b82525050565b600081519050919050565b600082825260208201905092915050565b60005b838110156116d35780820151818401526020810190506116b8565b60008484015250505050565b60006116ea82611699565b6116f481856116a4565b93506117048185602086016116b5565b61170d816112cc565b840191505092915050565b600060408201905061172d600083018561168a565b818103602083015261173f81846116df565b90509392505050565b61175181611544565b811461175c57600080fd5b50565b60008135905061176e81611748565b92915050565b60006020828403121561178a57611789611291565b5b60006117988482850161175f565b91505092915050565b6000819050919050565b60006117c66117c16117bc84611524565b6117a1565b611524565b9050919050565b60006117d8826117ab565b9050919050565b60006117ea826117cd565b9050919050565b6117fa816117df565b82525050565b600060208201905061181560008301846117f1565b92915050565b60006020828403121561183157611830611291565b5b600061183f848285016112b2565b91505092915050565b600060408201905061185d6000830185611556565b61186a6020830184611556565b9392505050565b600060608201905061188660008301866111cb565b61189360208301856111cb565b6118a060408301846111cb565b949350505050565b6000819050919050565b6118bb816118a8565b82525050565b6118ca816111c1565b82525050565b600061ffff82169050919050565b6118e7816118d0565b82525050565b600063ffffffff82169050919050565b611906816118ed565b82525050565b600082825260208201905092915050565b600061192882611699565b611932818561190c565b93506119428185602086016116b5565b61194b816112cc565b840191505092915050565b600060c08301600083015161196e60008601826118b2565b50602083015161198160208601826118c1565b50604083015161199460408601826118de565b5060608301516119a760608601826118fd565b5060808301516119ba60808601826118fd565b5060a083015184820360a08601526119d2828261191d565b9150508091505092915050565b600060208201905081810360008301526119f98184611956565b905092915050565b600081519050611a108161129b565b92915050565b600060208284031215611a2c57611a2b611291565b5b6000611a3a84828501611a01565b91505092915050565b7f4e487b7100000000000000000000000000000000000000000000000000000000600052601160045260246000fd5b6000611a7d826111c1565b9150611a88836111c1565b9250828203905081811115611aa057611a9f611a43565b5b92915050565b600082825260208201905092915050565b7f4d7573742062652070726f706f736564206f776e657200000000000000000000600082015250565b6000611aed601683611aa6565b9150611af882611ab7565b602082019050919050565b60006020820190508181036000830152611b1c81611ae0565b9050919050565b6000606082019050611b386000830186611556565b611b456020830185611556565b611b526040830184611556565b949350505050565b7f4e487b7100000000000000000000000000000000000000000000000000000000600052603260045260246000fd5b7f4e487b7100000000000000000000000000000000000000000000000000000000600052601260045260246000fd5b6000611bc3826111c1565b9150611bce836111c1565b925082611bde57611bdd611b89565b5b828206905092915050565b6000611bf4826117cd565b9050919050565b611c0481611be9565b82525050565b6000602082019050611c1f6000830184611bfb565b92915050565b600081905092915050565b50565b6000611c40600083611c25565b9150611c4b82611c30565b600082019050919050565b6000611c6182611c33565b9150819050919050565b611c748161167e565b82525050565b602082016000820151611c906000850182611c6b565b50505050565b6000602082019050611cab6000830184611c7a565b92915050565b7f4f6e6c792063616c6c61626c65206279206f776e657200000000000000000000600082015250565b6000611ce7601683611aa6565b9150611cf282611cb1565b602082019050919050565b60006020820190508181036000830152611d1681611cda565b9050919050565b7f43616e6e6f74207472616e7366657220746f2073656c66000000000000000000600082015250565b6000611d53601783611aa6565b9150611d5e82611d1d565b602082019050919050565b60006020820190508181036000830152611d8281611d46565b905091905056fea2646970667358221220bd1bfd30766ee560a40276c96400ea7a4e9c3acf626e3f4ca1edfd0427f7f26f64736f6c63430008130033","linkReferences":{}},"methodIdentifiers":{"acceptOwnership()":"79ba5097","checkUpkeep(bytes)":"6e04ff0d","enterRaffle()":"2cfcc539","getEntranceFee()":"09bc33a7","getLastTimeStamp()":"c1c244e8","getPlayer(uint256)":"e55ae4e8","getRaffleState()":"115cbaf5","getRecentWinner()":"473f1ddc","owner()":"8da5cb5b","performUpkeep(bytes)":"4585e33b","rawFulfillRandomWords(uint256,uint256[])":"1fe543e3","s_vrfCoordinator()":"9eccacf6","setCoordinator(address)":"8ea98117","transferOwnership(address)":"f2fde38b"},"id":49}