{"abi":[{"type":"constructor","inputs":[{"name":"entranceFee","type":"uint256","internalType":"uint256"},{"name":"interval","type":"uint256","internalType":"uint256"},{"name":"vrfCoordinator","type":"address","internalType":"address"},{"name":"gasLane","type":"bytes32","internalType":"bytes32"},{"name":"subscriptionId","type":"uint256","internalType":"uint256"},{"name":"callbackGasLimit","type":"uint32","internalType":"uint32"}],"stateMutability":"nonpayable"},{"type":"function","name":"acceptOwnership","inputs":[],"outputs":[],"stateMutability":"nonpayable"},{"type":"function","name":"checkUpkeep","inputs":[{"name":"","type":"bytes","internalType":"bytes"}],"outputs":[{"name":"upkeepNeeded","type":"bool","internalType":"bool"},{"name":"","type":"bytes","internalType":"bytes"}],"stateMutability":"view"},{"type":"function","name":"enterRaffle","inputs":[],"outputs":[],"stateMutability":"payable"},{"type":"function","name":"getEntranceFee","inputs":[],"outputs":[{"name":"","type":"uint256","internalType":"uint256"}],"stateMutability":"view"},{"type":"function","name":"getPlayer","inputs":[{"name":"indexOfPlayer","type":"uint256","internalType":"uint256"}],"outputs":[{"name":"","type":"address","internalType":"address"}],"stateMutability":"view"},{"type":"function","name":"getRaffleState","inputs":[],"outputs":[{"name":"","type":"uint8","internalType":"enum Raffle.RaffleState"}],"stateMutability":"view"},{"type":"function","name":"owner","inputs":[],"outputs":[{"name":"","type":"address","internalType":"address"}],"stateMutability":"view"},{"type":"function","name":"performUpkeep","inputs":[{"name":"","type":"bytes","internalType":"bytes"}],"outputs":[],"stateMutability":"nonpayable"},{"type":"function","name":"rawFulfillRandomWords","inputs":[{"name":"requestId","type":"uint256","internalType":"uint256"},{"name":"randomWords","type":"uint256[]","internalType":"uint256[]"}],"outputs":[],"stateMutability":"nonpayable"},{"type":"function","name":"s_vrfCoordinator","inputs":[],"outputs":[{"name":"","type":"address","internalType":"contract IVRFCoordinatorV2Plus"}],"stateMutability":"view"},{"type":"function","name":"setCoordinator","inputs":[{"name":"_vrfCoordinator","type":"address","internalType":"address"}],"outputs":[],"stateMutability":"nonpayable"},{"type":"function","name":"transferOwnership","inputs":[{"name":"to","type":"address","internalType":"address"}],"outputs":[],"stateMutability":"nonpayable"},{"type":"event","name":"EnteredRaffle","inputs":[{"name":"player","type":"address","indexed":true,"internalType":"address"}],"anonymous":false},{"type":"event","name":"OwnershipTransferRequested","inputs":[{"name":"from","type":"address","indexed":true,"internalType":"address"},{"name":"to","type":"address","indexed":true,"internalType":"address"}],"anonymous":false},{"type":"event","name":"OwnershipTransferred","inputs":[{"name":"from","type":"address","indexed":true,"internalType":"address"},{"name":"to","type":"address","indexed":true,"internalType":"address"}],"anonymous":false},{"type":"event","name":"PickedWinner","inputs":[{"name":"winner","type":"address","indexed":false,"internalType":"address"}],"anonymous":false},{"type":"error","name":"OnlyCoordinatorCanFulfill","inputs":[{"name":"have","type":"address","internalType":"address"},{"name":"want","type":"address","internalType":"address"}]},{"type":"error","name":"OnlyOwnerOrCoordinator","inputs":[{"name":"have","type":"address","internalType":"address"},{"name":"owner","type":"address","internalType":"address"},{"name":"coordinator","type":"address","internalType":"address"}]},{"type":"error","name":"Raffle__NotEnoughEthSent","inputs":[]},{"type":"error","name":"Raffle__RaffleNotOpen","inputs":[]},{"type":"error","name":"Raffle__TransferFailed","inputs":[]},{"type":"error","name":"Raffle__UpkeepNotNeeded","inputs":[{"name":"balance","type":"uint256","internalType":"uint256"},{"name":"length","type":"uint256","internalType":"uint256"},{"name":"raffleState","type":"uint256","internalType":"uint256"}]},{"type":"error","name":"ZeroAddress","inputs":[]}],"bytecode":{"object":"0x6101206040523480156200001257600080fd5b506040516200231a3803806200231a833981810160405281019062000038919062000440565b83338060008073ffffffffffffffffffffffffffffffffffffffff168273ffffffffffffffffffffffffffffffffffffffff1603620000ae576040517f08c379a0000000000000000000000000000000000000000000000000000000008152600401620000a5906200053d565b60405180910390fd5b816000806101000a81548173ffffffffffffffffffffffffffffffffffffffff021916908373ffffffffffffffffffffffffffffffffffffffff160217905550600073ffffffffffffffffffffffffffffffffffffffff168173ffffffffffffffffffffffffffffffffffffffff161462000135576200013481620001f060201b60201c565b5b50505080600260006101000a81548173ffffffffffffffffffffffffffffffffffffffff021916908373ffffffffffffffffffffffffffffffffffffffff1602179055505085608081815250508460a08181525050426004819055508260c081815250508160e081815250508063ffffffff166101008163ffffffff16815250506000600560146101000a81548160ff02191690836001811115620001df57620001de6200055f565b5b021790555050505050505062000600565b3373ffffffffffffffffffffffffffffffffffffffff168173ffffffffffffffffffffffffffffffffffffffff160362000261576040517f08c379a00000000000000000000000000000000000000000000000000000000081526004016200025890620005de565b60405180910390fd5b80600160006101000a81548173ffffffffffffffffffffffffffffffffffffffff021916908373ffffffffffffffffffffffffffffffffffffffff1602179055508073ffffffffffffffffffffffffffffffffffffffff1660008054906101000a900473ffffffffffffffffffffffffffffffffffffffff1673ffffffffffffffffffffffffffffffffffffffff167fed8889f560326eb138920d842192f0eb3dd22b4f139c87a2c57538e05bae127860405160405180910390a350565b600080fd5b6000819050919050565b620003398162000324565b81146200034557600080fd5b50565b60008151905062000359816200032e565b92915050565b600073ffffffffffffffffffffffffffffffffffffffff82169050919050565b60006200038c826200035f565b9050919050565b6200039e816200037f565b8114620003aa57600080fd5b50565b600081519050620003be8162000393565b92915050565b6000819050919050565b620003d981620003c4565b8114620003e557600080fd5b50565b600081519050620003f981620003ce565b92915050565b600063ffffffff82169050919050565b6200041a81620003ff565b81146200042657600080fd5b50565b6000815190506200043a816200040f565b92915050565b60008060008060008060c0878903121562000460576200045f6200031f565b5b60006200047089828a0162000348565b96505060206200048389828a0162000348565b95505060406200049689828a01620003ad565b9450506060620004a989828a01620003e8565b9350506080620004bc89828a0162000348565b92505060a0620004cf89828a0162000429565b9150509295509295509295565b600082825260208201905092915050565b7f43616e6e6f7420736574206f776e657220746f207a65726f0000000000000000600082015250565b600062000525601883620004dc565b91506200053282620004ed565b602082019050919050565b60006020820190508181036000830152620005588162000516565b9050919050565b7f4e487b7100000000000000000000000000000000000000000000000000000000600052602160045260246000fd5b7f43616e6e6f74207472616e7366657220746f2073656c66000000000000000000600082015250565b6000620005c6601783620004dc565b9150620005d3826200058e565b602082019050919050565b60006020820190508181036000830152620005f981620005b7565b9050919050565b60805160a05160c05160e05161010051611cce6200064c6000396000610624015260006105f3015260006105cd0152600061076201526000818161029c015261039d0152611cce6000f3fe6080604052600436106100a75760003560e01c806379ba50971161006457806379ba50971461019c5780638da5cb5b146101b35780638ea98117146101de5780639eccacf614610207578063e55ae4e814610232578063f2fde38b1461026f576100a7565b806309bc33a7146100ac578063115cbaf5146100d75780631fe543e3146101025780632cfcc5391461012b5780634585e33b146101355780636e04ff0d1461015e575b600080fd5b3480156100b857600080fd5b506100c1610298565b6040516100ce91906110e9565b60405180910390f35b3480156100e357600080fd5b506100ec6102c0565b6040516100f9919061117b565b60405180910390f35b34801561010e57600080fd5b506101296004803603810190610124919061132f565b6102d7565b005b61013361039b565b005b34801561014157600080fd5b5061015c600480360381019061015791906113e6565b61050a565b005b34801561016a57600080fd5b50610185600480360381019061018091906114e8565b61071f565b6040516101939291906115cb565b60405180910390f35b3480156101a857600080fd5b506101b1610808565b005b3480156101bf57600080fd5b506101c861099d565b6040516101d5919061163c565b60405180910390f35b3480156101ea57600080fd5b5061020560048036038101906102009190611683565b6109c6565b005b34801561021357600080fd5b5061021c610b0a565b604051610229919061170f565b60405180910390f35b34801561023e57600080fd5b506102596004803603810190610254919061172a565b610b30565b604051610266919061163c565b60405180910390f35b34801561027b57600080fd5b5061029660048036038101906102919190611683565b610b78565b005b60007f0000000000000000000000000000000000000000000000000000000000000000905090565b6000600560149054906101000a900460ff16905090565b600260009054906101000a900473ffffffffffffffffffffffffffffffffffffffff1673ffffffffffffffffffffffffffffffffffffffff163373ffffffffffffffffffffffffffffffffffffffff161461038d5733600260009054906101000a900473ffffffffffffffffffffffffffffffffffffffff166040517f1cf993f4000000000000000000000000000000000000000000000000000000008152600401610384929190611757565b60405180910390fd5b6103978282610b8c565b5050565b7f00000000000000000000000000000000000000000000000000000000000000003410156103f5576040517f246b904d00000000000000000000000000000000000000000000000000000000815260040160405180910390fd5b6000600181111561040957610408611104565b5b600560149054906101000a900460ff16600181111561042b5761042a611104565b5b14610462576040517fd24a271400000000000000000000000000000000000000000000000000000000815260040160405180910390fd5b6003339080600181540180825580915050600190039060005260206000200160009091909190916101000a81548173ffffffffffffffffffffffffffffffffffffffff021916908373ffffffffffffffffffffffffffffffffffffffff1602179055503373ffffffffffffffffffffffffffffffffffffffff167f819fbd717c9d0b421352c5116a644ca68ba176960c33f406f08d98a27370ca2760405160405180910390a2565b60006105246040518060200160405280600081525061071f565b509050806105935747600380549050600560149054906101000a900460ff16600181111561055557610554611104565b5b6040517f584327aa00000000000000000000000000000000000000000000000000000000815260040161058a93929190611780565b60405180910390fd5b6001600560146101000a81548160ff021916908360018111156105b9576105b8611104565b5b021790555060006040518060c001604052807f000000000000000000000000000000000000000000000000000000000000000081526020017f00000000000000000000000000000000000000000000000000000000000000008152602001600361ffff1681526020017f000000000000000000000000000000000000000000000000000000000000000063ffffffff168152602001600163ffffffff168152602001610675604051806020016040528060001515815250610dd5565b8152509050600260009054906101000a900473ffffffffffffffffffffffffffffffffffffffff1673ffffffffffffffffffffffffffffffffffffffff16639b1c385e826040518263ffffffff1660e01b81526004016106d591906118ee565b6020604051808303816000875af11580156106f4573d6000803e3d6000fd5b505050506040513d601f19601f820116820180604052508101906107189190611925565b5050505050565b600060606000600560149054906101000a900460ff16600181111561074757610746611104565b5b6000600181111561075b5761075a611104565b5b14905060007f00000000000000000000000000000000000000000000000000000000000000006004544261078f9190611981565b10159050600080600380549050119050600080471190508280156107b05750835b80156107b95750805b80156107c25750815b9550856040518060400160405280600381526020017f30783000000000000000000000000000000000000000000000000000000000008152509550955050505050915091565b600160009054906101000a900473ffffffffffffffffffffffffffffffffffffffff1673ffffffffffffffffffffffffffffffffffffffff163373ffffffffffffffffffffffffffffffffffffffff1614610898576040517f08c379a000000000000000000000000000000000000000000000000000000000815260040161088f90611a12565b60405180910390fd5b60008060009054906101000a900473ffffffffffffffffffffffffffffffffffffffff169050336000806101000a81548173ffffffffffffffffffffffffffffffffffffffff021916908373ffffffffffffffffffffffffffffffffffffffff1602179055506000600160006101000a81548173ffffffffffffffffffffffffffffffffffffffff021916908373ffffffffffffffffffffffffffffffffffffffff1602179055503373ffffffffffffffffffffffffffffffffffffffff168173ffffffffffffffffffffffffffffffffffffffff167f8be0079c531659141344cd1fd0a4f28419497f9722a3daafe3b4186f6b6457e060405160405180910390a350565b60008060009054906101000a900473ffffffffffffffffffffffffffffffffffffffff16905090565b6109ce61099d565b73ffffffffffffffffffffffffffffffffffffffff163373ffffffffffffffffffffffffffffffffffffffff1614158015610a575750600260009054906101000a900473ffffffffffffffffffffffffffffffffffffffff1673ffffffffffffffffffffffffffffffffffffffff163373ffffffffffffffffffffffffffffffffffffffff1614155b15610ac65733610a6561099d565b600260009054906101000a900473ffffffffffffffffffffffffffffffffffffffff166040517f061db9c1000000000000000000000000000000000000000000000000000000008152600401610abd93929190611a32565b60405180910390fd5b80600260006101000a81548173ffffffffffffffffffffffffffffffffffffffff021916908373ffffffffffffffffffffffffffffffffffffffff16021790555050565b600260009054906101000a900473ffffffffffffffffffffffffffffffffffffffff1681565b600060038281548110610b4657610b45611a69565b5b9060005260206000200160009054906101000a900473ffffffffffffffffffffffffffffffffffffffff169050919050565b610b80610e6d565b610b8981610efd565b50565b600060038054905082600081518110610ba857610ba7611a69565b5b6020026020010151610bba9190611ac7565b9050600060038281548110610bd257610bd1611a69565b5b9060005260206000200160009054906101000a900473ffffffffffffffffffffffffffffffffffffffff16905080600560006101000a81548173ffffffffffffffffffffffffffffffffffffffff021916908373ffffffffffffffffffffffffffffffffffffffff1602179055506000600560146101000a81548160ff02191690836001811115610c6657610c65611104565b5b0217905550600067ffffffffffffffff811115610c8657610c856111ec565b5b604051908082528060200260200182016040528015610cb45781602001602082028036833780820191505090505b5060039080519060200190610cca929190611029565b50426004819055507fb112587e57bfa970257f3d54fc52859c6300f6bd7a982462c320fed45c2530ed600560009054906101000a900473ffffffffffffffffffffffffffffffffffffffff16604051610d239190611b19565b60405180910390a160008173ffffffffffffffffffffffffffffffffffffffff1647604051610d5190611b65565b60006040518083038185875af1925050503d8060008114610d8e576040519150601f19603f3d011682016040523d82523d6000602084013e610d93565b606091505b5050905080610dce576040517fa1d04b3900000000000000000000000000000000000000000000000000000000815260040160405180910390fd5b5050505050565b60607f92fd13387c7fe7befbc38d303d6468778fb9731bc4583f17d92989c6fcfdeaaa82604051602401610e099190611ba5565b604051602081830303815290604052907bffffffffffffffffffffffffffffffffffffffffffffffffffffffff19166020820180517bffffffffffffffffffffffffffffffffffffffffffffffffffffffff83818316178352505050509050919050565b60008054906101000a900473ffffffffffffffffffffffffffffffffffffffff1673ffffffffffffffffffffffffffffffffffffffff163373ffffffffffffffffffffffffffffffffffffffff1614610efb576040517f08c379a0000000000000000000000000000000000000000000000000000000008152600401610ef290611c0c565b60405180910390fd5b565b3373ffffffffffffffffffffffffffffffffffffffff168173ffffffffffffffffffffffffffffffffffffffff1603610f6b576040517f08c379a0000000000000000000000000000000000000000000000000000000008152600401610f6290611c78565b60405180910390fd5b80600160006101000a81548173ffffffffffffffffffffffffffffffffffffffff021916908373ffffffffffffffffffffffffffffffffffffffff1602179055508073ffffffffffffffffffffffffffffffffffffffff1660008054906101000a900473ffffffffffffffffffffffffffffffffffffffff1673ffffffffffffffffffffffffffffffffffffffff167fed8889f560326eb138920d842192f0eb3dd22b4f139c87a2c57538e05bae127860405160405180910390a350565b8280548282559060005260206000209081019282156110a2579160200282015b828111156110a15782518260006101000a81548173ffffffffffffffffffffffffffffffffffffffff021916908373ffffffffffffffffffffffffffffffffffffffff16021790555091602001919060010190611049565b5b5090506110af91906110b3565b5090565b5b808211156110cc5760008160009055506001016110b4565b5090565b6000819050919050565b6110e3816110d0565b82525050565b60006020820190506110fe60008301846110da565b92915050565b7f4e487b7100000000000000000000000000000000000000000000000000000000600052602160045260246000fd5b6002811061114457611143611104565b5b50565b600081905061115582611133565b919050565b600061116582611147565b9050919050565b6111758161115a565b82525050565b6000602082019050611190600083018461116c565b92915050565b6000604051905090565b600080fd5b600080fd5b6111b3816110d0565b81146111be57600080fd5b50565b6000813590506111d0816111aa565b92915050565b600080fd5b6000601f19601f8301169050919050565b7f4e487b7100000000000000000000000000000000000000000000000000000000600052604160045260246000fd5b611224826111db565b810181811067ffffffffffffffff82111715611243576112426111ec565b5b80604052505050565b6000611256611196565b9050611262828261121b565b919050565b600067ffffffffffffffff821115611282576112816111ec565b5b602082029050602081019050919050565b600080fd5b60006112ab6112a684611267565b61124c565b905080838252602082019050602084028301858111156112ce576112cd611293565b5b835b818110156112f757806112e388826111c1565b8452602084019350506020810190506112d0565b5050509392505050565b600082601f830112611316576113156111d6565b5b8135611326848260208601611298565b91505092915050565b60008060408385031215611346576113456111a0565b5b6000611354858286016111c1565b925050602083013567ffffffffffffffff811115611375576113746111a5565b5b61138185828601611301565b9150509250929050565b600080fd5b60008083601f8401126113a6576113a56111d6565b5b8235905067ffffffffffffffff8111156113c3576113c261138b565b5b6020830191508360018202830111156113df576113de611293565b5b9250929050565b600080602083850312156113fd576113fc6111a0565b5b600083013567ffffffffffffffff81111561141b5761141a6111a5565b5b61142785828601611390565b92509250509250929050565b600080fd5b600067ffffffffffffffff821115611453576114526111ec565b5b61145c826111db565b9050602081019050919050565b82818337600083830152505050565b600061148b61148684611438565b61124c565b9050828152602081018484840111156114a7576114a6611433565b5b6114b2848285611469565b509392505050565b600082601f8301126114cf576114ce6111d6565b5b81356114df848260208601611478565b91505092915050565b6000602082840312156114fe576114fd6111a0565b5b600082013567ffffffffffffffff81111561151c5761151b6111a5565b5b611528848285016114ba565b91505092915050565b60008115159050919050565b61154681611531565b82525050565b600081519050919050565b600082825260208201905092915050565b60005b8381101561158657808201518184015260208101905061156b565b60008484015250505050565b600061159d8261154c565b6115a78185611557565b93506115b7818560208601611568565b6115c0816111db565b840191505092915050565b60006040820190506115e0600083018561153d565b81810360208301526115f28184611592565b90509392505050565b600073ffffffffffffffffffffffffffffffffffffffff82169050919050565b6000611626826115fb565b9050919050565b6116368161161b565b82525050565b6000602082019050611651600083018461162d565b92915050565b6116608161161b565b811461166b57600080fd5b50565b60008135905061167d81611657565b92915050565b600060208284031215611699576116986111a0565b5b60006116a78482850161166e565b91505092915050565b6000819050919050565b60006116d56116d06116cb846115fb565b6116b0565b6115fb565b9050919050565b60006116e7826116ba565b9050919050565b60006116f9826116dc565b9050919050565b611709816116ee565b82525050565b60006020820190506117246000830184611700565b92915050565b6000602082840312156117405761173f6111a0565b5b600061174e848285016111c1565b91505092915050565b600060408201905061176c600083018561162d565b611779602083018461162d565b9392505050565b600060608201905061179560008301866110da565b6117a260208301856110da565b6117af60408301846110da565b949350505050565b6000819050919050565b6117ca816117b7565b82525050565b6117d9816110d0565b82525050565b600061ffff82169050919050565b6117f6816117df565b82525050565b600063ffffffff82169050919050565b611815816117fc565b82525050565b600082825260208201905092915050565b60006118378261154c565b611841818561181b565b9350611851818560208601611568565b61185a816111db565b840191505092915050565b600060c08301600083015161187d60008601826117c1565b50602083015161189060208601826117d0565b5060408301516118a360408601826117ed565b5060608301516118b6606086018261180c565b5060808301516118c9608086018261180c565b5060a083015184820360a08601526118e1828261182c565b9150508091505092915050565b600060208201905081810360008301526119088184611865565b905092915050565b60008151905061191f816111aa565b92915050565b60006020828403121561193b5761193a6111a0565b5b600061194984828501611910565b91505092915050565b7f4e487b7100000000000000000000000000000000000000000000000000000000600052601160045260246000fd5b600061198c826110d0565b9150611997836110d0565b92508282039050818111156119af576119ae611952565b5b92915050565b600082825260208201905092915050565b7f4d7573742062652070726f706f736564206f776e657200000000000000000000600082015250565b60006119fc6016836119b5565b9150611a07826119c6565b602082019050919050565b60006020820190508181036000830152611a2b816119ef565b9050919050565b6000606082019050611a47600083018661162d565b611a54602083018561162d565b611a61604083018461162d565b949350505050565b7f4e487b7100000000000000000000000000000000000000000000000000000000600052603260045260246000fd5b7f4e487b7100000000000000000000000000000000000000000000000000000000600052601260045260246000fd5b6000611ad2826110d0565b9150611add836110d0565b925082611aed57611aec611a98565b5b828206905092915050565b6000611b03826116dc565b9050919050565b611b1381611af8565b82525050565b6000602082019050611b2e6000830184611b0a565b92915050565b600081905092915050565b50565b6000611b4f600083611b34565b9150611b5a82611b3f565b600082019050919050565b6000611b7082611b42565b9150819050919050565b611b8381611531565b82525050565b602082016000820151611b9f6000850182611b7a565b50505050565b6000602082019050611bba6000830184611b89565b92915050565b7f4f6e6c792063616c6c61626c65206279206f776e657200000000000000000000600082015250565b6000611bf66016836119b5565b9150611c0182611bc0565b602082019050919050565b60006020820190508181036000830152611c2581611be9565b9050919050565b7f43616e6e6f74207472616e7366657220746f2073656c66000000000000000000600082015250565b6000611c626017836119b5565b9150611c6d82611c2c565b602082019050919050565b60006020820190508181036000830152611c9181611c55565b905091905056fea26469706673582212208d80ee11b0ed7891f2112944b3569b0533568903171bc18d4006fd9611f28b1364736f6c63430008130033","linkReferences":{}},"methodIdentifiers":{"acceptOwnership()":"79ba5097","checkUpkeep(bytes)":"6e04ff0d","enterRaffle()":"2cfcc539","getEntranceFee()":"09bc33a7","getPlayer(uint256)":"e55ae4e8","getRaffleState()":"115cbaf5","owner()":"8da5cb5b","performUpkeep(bytes)":"4585e33b","rawFulfillRandomWords(uint256,uint256[])":"1fe543e3","s_vrfCoordinator()":"9eccacf6","setCoordinator(address)":"8ea98117","transferOwnership(address)":"f2fde38b"},"id":49}